:020000040800F2
:10000000D011002041020008E9210008711E0008FB
:10001000E52100082D060008812E000800000000E0
:100020000000000000000000000000006122000845
:1000300031060008000000005D220008B922000817
:100040005B0200085B0200085B0200085B0200081C
:100050005B0200085B0200085B0200085B0200080C
:100060005B0200085B0200085B0200085B020008FC
:100070005B0200085B0200085B0200085B020008EC
:100080005B0200085B0200085B0200080000000041
:100090000000000000000000000000005B020008FB
:1000A0005B0200085B0200085B0200085B020008BC
:1000B0005B0200085B0200085B0200085B020008AC
:1000C0005B0200085B0200085B0200085B0200089C
:1000D0005B0200085B0200085B02000800000000F1
:1000E0005B0200085B0200085B02000800000000E1
:1000F0000000000000000000000000005B0200089B
:10010000000000005B0200085B0200085B020008C0
:1001100000000000000000000000000000000000DF
:100120005B0200085B0200085B0200085B0200083B
:100130005B0200080000000000000000000000005A
:100140000000000000000000000000005B0200084A
:100150005B0200085B0200085B0200085B0200080B
:100160005B0200085B0200080000000000000000C5
:10017000000000000000000000000000000000007F
:10018000000000005B02000800000000000000000A
:100190005B02000800F002F800F040F80AA090E8C6
:1001A000000C82448344AAF10107DA4501D100F032
:1001B00035F8AFF2090EBAE80F0013F0010F18BFBF
:1001C000FB1A43F001031847E82D0000082E000039
:1001D000103A24BF78C878C1FAD8520724BF30C873
:1001E00030C144BF04680C60704700000023002445
:1001F00000250026103A28BF78C1FBD8520728BF37
:1002000030C148BF0B6070471FB502F0B8FE0FBC8D
:1002100000F014F80FB41FBD10B510BD00F0D2F8F7
:100220001146FFF7F1FF02F075FE00F0F0F803B49D
:10023000FFF7F2FF03BC00F0FDF8000000F032B958
:100240000948804709480047FEE7FEE7FEE7FEE76A
:10025000FEE7FEE7FEE7FEE7FEE7FEE704480549A6
:10026000054A064B704700008523000895010008E9
:10027000D0050020D0110020D0090020D009002096
:1002800053EA020C00F069802DE9F04B4FF00006B4
:10029000002B1FBFB3FA83F503FA05F424FA05F621
:1002A0005E4012BF1643B2FA82F502FA05F4C5F1B8
:1002B00020051EBF22FA05FC44EA0C04203556EA4C
:1002C000044C4FEA144418BF641C4FF000084FF070
:1002D0000009904271EB030C39D3002919BFB1FA20
:1002E00081F701FA07F6B0FA80F700FA07F6C7F1CE
:1002F00020071EBF20FA07FC46EA0C062037B6FB93
:10030000F4FCA7EB0507103F07F01F0BCBF120060D
:100310002CFA06F60CFA0BFB44BFB3460026202F3E
:10032000A4BF5E464FF0000B5BEA060C08BF4FF01F
:10033000010B19EB0B0948EB0608ABFB027C06FB33
:1003400002CC0BFB03CCC01B71EB0C01C1E70B46CD
:10035000024641464846BDE8F08B13B5084318BF36
:100360004FF0FF300146AFF30080BDE81C407047FE
:100370004FF0000200B5134694469646203922BF3E
:10038000A0E80C50A0E80C50B1F12001BFF4F7AF89
:10039000090728BFA0E80C5048BF0CC05DF804EB6B
:1003A000890028BF40F8042B08BF704748BF20F8D9
:1003B000022B11F0804F18BF00F8012B70477047D7
:1003C00070477047754600F02BF8AE460500694649
:1003D000534620F00700854618B020B5FFF73EFFD2
:1003E000BDE820404FF000064FF000074FF0000836
:1003F0004FF0000BAC46ACE8C009ACE8C009ACE873
:10040000C009ACE8C00921F007018D46704710B55E
:100410000446AFF300802046BDE81040FFF707BF59
:100420000048704710000020002801D000F002B8FA
:100430007047000001491820ABBEFEE7260002000D
:1004400070B505460C460A2000E06D1C00F011F85E
:1004500035B128780028F8D102E0641C00F009F8D2
:1004600014B120780028F8D1BDE870400A20AFF31D
:10047000008008B569468DF800000320ABBE08BDBA
:1004800070470246C91C21F00301D2E900031B1A80
:100490008B4201D2002070470144C91D21F00701A1
:1004A000116070472DE9F34F83B000274FF480743B
:1004B000BA4603A821468DF80070FFF7E2FF5FEA15
:1004C000000801D100F0AAF82146404600F070F87B
:1004D000060009D04FF0010B4546C14616F8014B06
:1004E0008FB15C2C16D01CE008F108004146C8F81A
:1004F00000000020C8F80400D8F800402070012057
:1005000005B0BDE8F08F222C01D0272C0FD1274653
:10051000BA462CE03078222807D05C2805D027285E
:1005200003D0BC4203D1002721E0761C04464CB125
:100530002FB9202C06D0A4F10900042802D905F80F
:10054000014BCBE74D4502D1BAF1000F0FD0524617
:100550004946002005F8010B6846AFF300809DF87E
:10056000000070B14D464FF0000A0BF1010B002C5A
:10057000B4D14FEA8B0103A8FFF783FF040002D038
:1005800004E0A946EFE7002000F048F800204246CA
:10059000C4F8008005E012F8011B11B9401C44F8B2
:1005A0002020AA42F7D3002144F820102146A7E7D3
:1005B0001CB50446CDE9000169461520ABBE08B163
:1005C00000201CBD20461CBD7047704710B5012897
:1005D00005D0002103A0FFF733FF012010BD09A1C2
:1005E000F8E7000053494752544D454D3A204F75A6
:1005F00074206F662068656170206D656D6F72791B
:10060000000000003A2048656170206D656D6F72D2
:100610007920636F727275707465640010B5FFF7AE
:10062000D5FFBDE81040FFF7FFBE0000FFE7FEE783
:100630007047000072B6FFE7FEE7000080B584B0A7
:10064000039000F0EBF902900398019001980130BB
:10065000002809D0FFE740F20500C2F20000007850
:10066000019908440190FFE7FFE700F0D7F90299EC
:10067000401A0199884201D2FFE7F6E704B080BD35
:100680008BB00A9009910020079006900590089081
:10069000FFE708980F2800F2A881FFE708980121DA
:1006A00001FA00F007900998006807990840069041
:1006B00006980799884240F09381FFE709984068BF
:1006C00000F00300012807D0FFE70998406800F018
:1006D000030002282FD1FFE70A9880680590089848
:1006E0004000032101FA00F0059921EA000005907D
:1006F0000998C06808994900884005990843059001
:1007000005980A9988600A98406805900898012120
:1007100001FA00F0059921EA000005900998406867
:10072000C0F3001008998840059908430590059882
:100730000A994860FFE70998406800F00300032821
:1007400018D0FFE70A98C068059008984000032178
:1007500001FA00F0059921EA0000059009988068E7
:1007600008994900884005990843059005980A9919
:10077000C860FFE70998406800F00300022826D10E
:10078000FFE70A9808996FF0030202EA5101084452
:10079000006A0590089800F0070080000F2101FA18
:1007A00000F0059921EA0000059009980069089970
:1007B00001F00701890088400599084305900598D4
:1007C0000A99089B02EA530211440862FFE70A985B
:1007D0000068059008984000032101FA00F005998F
:1007E00021EA000005900998406800F0030008998C
:1007F0004900884005990843059005980A990860C2
:10080000099880798007002800F0E980FFE7FFE77A
:100810000020049043F64400C4F20200016841F451
:1008200080410160006800F4804004900498FFE774
:10083000089820F0030043F60801C4F20101405873
:100840000590089800F0030080000F2101FA00F0E5
:10085000059921EA000005900A980021C4F20201DE
:10086000884203D1FFE70020039034E00A9840F269
:100870000041C4F20201884203D1FFE70120029047
:1008800026E00A9840F60001C4F20201884203D132
:10089000FFE70220019018E00A9840F60041C4F2F8
:1008A0000201884203D1FFE7032000900AE00A9882
:1008B00041F20001C4F202010722884208BF04226B
:1008C0000092FFE700980190FFE701980290FFE790
:1008D00002980390FFE70398C0B2089901F0030162
:1008E000890088400599084305900598089921F0EA
:1008F000030143F60802C4F20102885043F608409F
:10090000C4F20100006805900698059921EA0000EC
:10091000059009988079C006002805D5FFE706985C
:10092000059908430590FFE7059843F60841C4F28E
:100930000101086043F60C40C4F201000068059014
:100940000698059921EA00000590099880798006AB
:10095000002805D5FFE70698059908430590FFE7AD
:10096000059843F60C41C4F20101086043F60440C7
:10097000C4F20100006805900698059921EA00007C
:100980000590099880798007002805D5FFE706982B
:10099000059908430590FFE7059843F60441C4F222
:1009A0000101086043F60040C4F2010000680590B0
:1009B0000698059921EA0000059009988079C007FA
:1009C000002805D0FFE70698059908430590FFE742
:1009D000059843F60041C4F201010860FFE7FFE714
:1009E000FFE708980130089053E60BB0704700000D
:1009F00083B00A460290ADF8061002984069009054
:100A00000098BDF8061000EA010321EA000040EA60
:100A100003400299886103B07047000040F2C8505B
:100A2000C2F200000068704710B58EB00C900C98B0
:100A3000002804D1FFE701208DF8370083E00C98EF
:100A400000680B900C9890F8D503002808D1FFE7B8
:100A50000C98002180F8D4130C9800F079F8FFE787
:100A60000C98032180F8D5130B98B0F1A04F04D156
:100A7000FFE70C9800218171FFE70C98006802F0F5
:100A800055F80C990A680B7C8DF828304B68D1F822
:100A900008C0C9680991CDF820C007930799089B41
:100AA000DDF824C0DDF828E06C46C4F800E00290D0
:100AB00010461A46634601F085FF002808D0FFE77C
:100AC0000C98022180F8D51301208DF837003AE008
:100AD0000C980068012102F063F9002808D0FFE7B4
:100AE0000C98022180F8D51301208DF837002AE0F8
:100AF0000C980168027C8DF8182042688368C068F1
:100B00000590049303920398049A059BDDF818C09E
:100B1000EE46CEF800C001900846019902F090F828
:100B2000002808D0FFE70C98022180F8D513012097
:100B30008DF8370007E00C98012180F8D5130020CC
:100B40008DF83700FFE79DF837000EB010BD0000AC
:100B500080B588B00790002006900590049003901F
:100B6000029007980068B0F1A04F3ED1FFE7FFE781
:100B70000020019043F63000C4F20200016841F009
:100B800001010160006800F0010001900198FFE799
:100B90004FF4C050029002200390002004900320E4
:100BA00005900A2006900020C4F2020002A9FFF777
:100BB00067FDFFE743F63400C4F20200016841F02C
:100BC00080010160FFE70020009043F64400C4F27A
:100BD0000200016841F480410160006800F4804037
:100BE00000900098FFE7FFE7FFE708B080BD000036
:100BF00040F20500C2F20000007840F2C851C2F293
:100C000000010A68104408607047000080B582B097
:100C100043F60040C4F20200016841F40071016033
:100C2000016841F480610160016841F480710160F4
:100C3000032000F089F80F2000F006F8019000F082
:100C40003DF8002002B080BD80B582B0009040F237
:100C50000000C2F20000006840F20501C2F200018B
:100C600009784FF47A72B2FBF1F1B0FBF1F000F0C9
:100C7000A9FD002804D0FFE701208DF8070018E047
:100C800000980F280DD8FFE700994FF0FF300022A1
:100C900000F03AF8009840F20801C2F20001086042
:100CA00003E001208DF8070003E000208DF8070025
:100CB000FFE79DF8070002B080BD000082B0FFE7AB
:100CC0000020019043F64400C4F20200016841F4A0
:100CD00080410160006800F4804001900198FFE7C6
:100CE000FFE70020009043F64000C4F202000168D4
:100CF00041F080510160006800F080500090009841
:100D0000FFE702B07047000080B588B003468DF859
:100D10001F000691059200200490039302F0B2F8A0
:100D200004909DF91F000499069A059B02900846BD
:100D300011461A4601F05AFA0299019008460199A3
:100D400002F0A8F808B080BD80B582B0019001988B
:100D500002F0C2F802B080BD80B584B0029001916B
:100D60000298002804D1FFE701208DF80F0021E14F
:100D7000019843F60041C4F20201096801F007013D
:100D8000884212D9FFE7019843F60041C4F20201FC
:100D90000870086800F007000199884204D0FFE756
:100DA00001208DF80F0005E1FFE702980078800729
:100DB00000282AD5FFE7029800784007002809D5C7
:100DC000FFE743F60800C4F20200016841F4E05175
:100DD0000160FFE7029800780007002809D5FFE7C7
:100DE00043F60800C4F20200016841F4604101606A
:100DF000FFE743F60800C4F20200016821F0F001A9
:100E0000029A926811430160FFE702980078C007D8
:100E100000286ED0FFE702984068012811D1FFE753
:100E200043F60000C4F20200006800F40030002124
:100E3000B1EB504F04D1FFE701208DF80F00B9E06E
:100E40002CE002984068022805D0FFE7029840682D
:100E5000032811D1FFE743F60000C4F20200006846
:100E600000F000700021B1EB506F04D1FFE70120CA
:100E70008DF80F009EE010E043F60000C4F202007F
:100E8000006800F002000021B1EB500F04D1FFE731
:100E900001208DF80F008DE0FFE7FFE743F6080023
:100EA000C4F20200016821F00301029A5268114362
:100EB0000160FFF7B3FD0090FFE743F60800C4F2BE
:100EC0000200006800F00C0002994968B0EB810F45
:100ED0000ED0FFE7FFF7A2FD0099401A41F28931D9
:100EE000884204D3FFE703208DF80F0062E0E4E7B7
:100EF000FFE7019843F60041C4F20201096801F0DE
:100F00000701884212D2FFE7019843F60041C4F27C
:100F100002010870086800F007000199884204D0B7
:100F2000FFE701208DF80F0044E0FFE7029800780A
:100F3000400700280CD5FFE743F60800C4F2020082
:100F4000016821F4E051029AD26811430160FFE781
:100F500002980078000700280DD5FFE743F6080047
:100F6000C4F20200016821F46041029A126941EA68
:100F7000C2010160FFE700F04BF843F60801C4F23C
:100F800002010968C9B2090942F69872C0F6000266
:100F9000515CC84040F20001C2F20001086040F21A
:100FA0000800C2F200000068FFF74EFE00218DF835
:100FB0000F10FFE79DF80F0004B080BD40F2000065
:100FC000C2F200000068704780B5FFF7F7FF43F6F4
:100FD0000801C4F202010968C1F3822142F6A87235
:100FE000C0F60002515CC84080BD000080B5FFF72C
:100FF000E5FF43F60801C4F20201096889B2490B12
:1010000042F6A872C0F60002515CC84080BD0000E4
:1010100080B586B00020059004900390029043F6BE
:101020000800C4F20200006800F00C00014600282D
:10103000019108D0FFE7019804280AD0FFE7019842
:1010400008280CD04FE042F20040C0F2F4000290B9
:101050004FE041F20020C0F27A00029049E043F6EE
:101060000400C4F20200016801F03F01059100682C
:101070004002002813D5FFE743F60400C4F2020043
:101080000068C0F3881041F20021C0F27A01A0FB91
:101090000101059A0023FFF7F3F8049012E043F6EC
:1010A0000400C4F202000068C0F3881042F200415C
:1010B000C0F2F401A0FB0101059A0023FFF7E0F85C
:1010C0000490FFE743F60400C4F20200006800F455
:1010D0004030022101EBD030039004980399B0FB1B
:1010E000F1F0029005E042F20040C0F2F4000290FC
:1010F000FFE7029806B080BD80B586B004900498E2
:10110000002804D1FFE701208DF8170055E304986B
:101110000078C007002800F0A780FFE743F608002A
:10112000C4F20200006800F00C00042813D0FFE7AE
:1011300043F60800C4F20200006800F00C00082822
:101140001FD1FFE743F60400C4F20200006840022A
:10115000002816D5FFE743F60000C4F2020000683D
:1011600000F400300021B1EB504F09D0FFE70498A4
:101170004068002804D1FFE701208DF817001CE328
:1011800071E0FFE704984068B0F5803F09D1FFE7C0
:1011900043F60000C4F20200016841F480310160AE
:1011A00020E004984068B0F5A02F0DD1FFE743F68A
:1011B0000000C4F20200016841F48021016001686E
:1011C00041F4803101600CE043F60000C4F20200FB
:1011D000016821F480310160016821F480210160FF
:1011E000FFE7FFE7FFE70498406800281DD0FFE70E
:1011F000FFF714FC0390FFE743F60000C4F202007F
:10120000006800F400300021B1EB504F0CD1FFE733
:10121000FFF704FC0399401A652804D3FFE7032075
:101220008DF81700C9E2E7E71CE0FFF7F7FB039032
:10123000FFE743F60000C4F20200006800F400304B
:101240000021B1EB504F0CD0FFE7FFF7E7FB03990C
:10125000401A652804D3FFE703208DF81700ACE29D
:10126000E7E7FFE7FFE7FFE704980078800700283B
:1012700040F19780FFE743F60800C4F202000068DF
:1012800010F00C0F13D0FFE743F60800C4F2020081
:10129000006800F00C0008282CD1FFE743F604009A
:1012A000C4F2020000684002002823D4FFE743F69E
:1012B0000000C4F20200006800F002000021B1EB5F
:1012C000500F09D0FFE70498C068012804D0FFE759
:1012D00001208DF8170070E243F60000C4F202000E
:1012E000016821F0F801049A126941EAC201016023
:1012F000FFE755E00498C06800282ED0FFE70020E3
:10130000C4F2472001210160FFF788FB0390FFE74B
:1013100043F60000C4F20200006800F00200002161
:10132000B1EB500F0CD1FFE7FFF778FB0399401AA0
:10133000032804D3FFE703208DF817003DE2E7E719
:1013400043F60000C4F20200016821F0F801049A9B
:10135000126941EAC201016021E00020C4F2472085
:1013600000210160FFF75AFB0390FFE743F60000FE
:10137000C4F20200006800F002000021B1EB500F3F
:101380000CD0FFE7FFF74AFB0399401A032804D368
:10139000FFE703208DF817000FE2E7E7FFE7FFE71D
:1013A000FFE704980078000700284CD5FFE7049871
:1013B0004069002823D0FFE740F68060C4F2472050
:1013C00001210160FFF72AFB0390FFE743F6740059
:1013D000C4F20200006800F002000021B1EB500FDF
:1013E0000CD1FFE7FFF71AFB0399401A032804D337
:1013F000FFE703208DF81700DFE1E7E722E040F682
:101400008060C4F2472000210160FFF707FB0390D2
:10141000FFE743F67400C4F20200006800F0020027
:101420000021B1EB500F0CD0FFE7FFF7F7FA03995B
:10143000401A032804D3FFE703208DF81700BCE10E
:10144000E7E7FFE7FFE7049800784007002840F14E
:10145000CF80FFE700208DF8070043F64000C4F27C
:1014600002000068C000002815D4FFE7FFE7002055
:10147000009043F64000C4F20200016841F0805140
:101480000160006800F0805000900098FFE70120A4
:101490008DF80700FFE747F20000C4F20000006883
:1014A000C005002822D4FFE747F20000C4F2000084
:1014B000016841F480710160FFF7B0FA0390FFE723
:1014C00047F20000C4F200000068C00500280CD4F8
:1014D000FFE7FFF7A3FA0399401A032804D3FFE7B5
:1014E00003208DF8170068E1EAE7FFE7FFE70498BB
:1014F0008068012809D1FFE743F67000C4F20200BA
:10150000016841F0010101601FE00498806805282E
:101510000DD1FFE743F67000C4F20200016841F00C
:1015200004010160016841F0010101600CE043F633
:101530007000C4F20200016821F00101016001683D
:1015400021F004010160FFE7FFE7FFE704988068EE
:1015500000281FD0FFE7FFF761FA0390FFE743F68B
:101560007000C4F20200006800F002000021B1EB3C
:10157000500F0ED1FFE7FFF751FA0399401A41F2DD
:101580008931884204D3FFE703208DF8170014E166
:10159000E5E71EE0FFF742FA0390FFE743F670002D
:1015A000C4F20200006800F002000021B1EB500F0D
:1015B0000ED0FFE7FFF732FA0399401A41F2893162
:1015C000884204D3FFE703208DF81700F5E0E5E734
:1015D000FFE79DF80700012809D1FFE743F6400027
:1015E000C4F20200016821F080510160FFE7FFE7CB
:1015F00004988069002800F0DC80FFE743F60800CB
:10160000C4F20200006800F00C00082800F0858099
:10161000FFE70498806902285CD1FFE76020C4F2EC
:10162000472000210160FFF7F9F90390FFE743F637
:101630000000C4F20200006800F000700021B1EB6D
:10164000506F0CD0FFE7FFF7E9F90399401A032820
:1016500004D3FFE703208DF81700AEE0E7E7049816
:10166000C169026A436AD0F828C0114341EA831174
:101670004FEACC324FF6FF739A43A2F58032114302
:10168000C06A41EA006043F60401C4F20201086046
:101690006020C4F2472001210160FFF7BFF90390E9
:1016A000FFE743F60000C4F20200006800F000709B
:1016B0000021B1EB506F0CD1FFE7FFF7AFF90399B1
:1016C000401A032804D3FFE703208DF8170074E0C5
:1016D000E7E721E06020C4F2472000210160FFF726
:1016E0009DF90390FFE743F60000C4F20200006892
:1016F00000F000700021B1EB506F0CD0FFE7FFF756
:101700008DF90399401A032804D3FFE703208DF8CD
:10171000170052E0E7E7FFE74AE0049880690128F4
:1017200004D1FFE701208DF8170046E043F60400DE
:10173000C4F202000068029004988069012831D048
:10174000FFE7029800F480000499C969884229D112
:10175000FFE7029800F03F000499096A884221D10E
:10176000FFE7029847F6C07108400499496AB0EB58
:10177000811F17D1FFE7029800F440300499896A6D
:10178000C9034FF6FF729143A1F58031884209D118
:10179000FFE7029800F070600499C96AB0EB016F2E
:1017A00004D0FFE701208DF8170006E0FFE7FFE710
:1017B000FFE700208DF81700FFE79DF8170006B03F
:1017C00080BD000080B582B00190019800F04AFD14
:1017D00002B080BD85B003900291FFE7039890F8B6
:1017E0003C00012804D1FFE702208DF813006CE0D3
:1017F0000398012180F83C10FFE7FFE703980221DE
:1018000080F83D10039800684068019003980068D4
:1018100080680090019820F07000019002980068A4
:101820000199084301900198039909684860039859
:1018300000680021C4F2010188422AD0FFE7039822
:101840000068B0F1804F24D0FFE70398006840F2B1
:101850000041C4F2000188421BD0FFE703980068F2
:1018600040F60001C4F20001884212D0FFE703985D
:10187000006840F60041C4F20001884209D0FFE749
:101880000398006844F20001C4F2010188420ED1BD
:10189000FFE7009820F080000090029840680099CF
:1018A000084300900098039909688860FFE703984F
:1018B000012180F83D10FFE70398002180F83C10DB
:1018C000FFE700208DF81300FFE79DF8130005B037
:1018D0007047000080B58CB00B9000200A900990F2
:1018E0000890079006900B98006840F20041C4F2FF
:1018F0000001884245D1FFE7FFE70020059043F64D
:101900003000C4F20200016841F00101016000688A
:1019100000F0010005900598FFE7FFE70020049024
:1019200043F63000C4F20200016841F00201016098
:10193000006800F0020004900498FFE7C0200690C1
:10194000022007900021089109910A900022C4F218
:10195000020206AB02901046019119460093FEF771
:101960008FFE032006900298079001990891099133
:101970000A9040F20040C4F202000099FEF780FE97
:101980002BE00B98006840F60001C4F20001884289
:1019900022D1FFE7FFE70020039043F63000C4F2B6
:1019A0000200016841F002010160006800F00200DD
:1019B00003900398FFE74FF47070069002200790A1
:1019C0000021089109910A9040F20040C4F20200FF
:1019D00006A9FEF755FEFFE7FFE70CB080BD00004B
:1019E00080B586B004900391029200208DF8070024
:1019F000FFE7049890F83C00012804D1FFE702209B
:101A00008DF8170089E00498012180F83C10FFE769
:101A1000FFE702980C28009000F270800099DFE840
:101A200001F0076D6D6D206D6D6D3A6D6D6D53003C
:101A300004980068039900F051FD049800688169DA
:101A400041F00801816104980068816921F0040176
:101A5000816103980069049909688A691043886163
:101A600050E004980068039900F09EFD0498006817
:101A7000816941F40061816104980068816921F401
:101A80008061816103980069049909688A6942EA62
:101A90000020886136E004980068039900F0EEFDAC
:101AA00004980068C16941F00801C16104980068A8
:101AB000C16921F00401C1610398006904990968B2
:101AC000CA691043C8611DE004980068039900F0DA
:101AD0003FFE04980068C16941F40061C161049847
:101AE0000068C16921F48061C161039800690499AB
:101AF0000968CA6942EA0020C86103E001208DF844
:101B00000700FFE7FFE70498002180F83C10FFE79B
:101B10009DF807008DF81700FFE79DF8170006B045
:101B200080BD000080B584B002900298002804D1E6
:101B3000FFE701208DF80F0043E0029890F83D0088
:101B4000002808D1FFE70298002180F83C10029895
:101B500000F03CF8FFE70298022180F83D1002985F
:101B600050F8041B01900846019900F015FC0298FA
:101B7000012180F84610FFE70298012180F83E100D
:101B8000029880F83F10029880F84010029880F880
:101B90004110FFE7FFE70298012180F84210029808
:101BA00080F84310029880F84410029880F845109D
:101BB000FFE70298012180F83D1000208DF80F000A
:101BC000FFE79DF80F0004B080BD000083B00290D5
:101BD0000298006840F20041C4F20001884212D12C
:101BE000FFE7FFE70020019043F64000C4F2020047
:101BF000016841F002010160006800F002000190FC
:101C00000198FFE71BE00298006840F60001C4F26B
:101C10000001884212D1FFE7FFE70020009043F661
:101C20004000C4F20200016841F004010160006854
:101C300000F0040000900098FFE7FFE7FFE703B023
:101C40007047000080B582B000900098002804D151
:101C5000FFE701208DF8070042E000988069002826
:101C600001D0FFE700E0FFE7009890F8410000286E
:101C700008D1FFE70098002180F84010009800F09C
:101C800033F8FFE70098242180F84110009800689D
:101C9000C16821F40051C160009800F0E7FD009890
:101CA0000068016921F49041016100980068416970
:101CB00021F02A01416100980068C16841F4005197
:101CC000C1600098002141640098202280F84120E2
:101CD000009880F84220009841638DF80710FFE7D4
:101CE0009DF8070002B080BD80B58CB00B9000203D
:101CF0000A9009900890079006900B98006841F2AE
:101D00000001C4F20101884234D1FFE7FFE700205F
:101D1000059043F64400C4F20200016841F010014E
:101D20000160006800F0100005900598FFE7FFE7EC
:101D30000020049043F63000C4F20200016841F034
:101D400001010160006800F0010004900498FFE7C1
:101D50004FF4C060069002200790002008900320F6
:101D6000099007200A900020C4F2020006A9FEF79D
:101D700087FC7AE00B98006844F20041C4F200014D
:101D8000884233D1FFE7FFE70020039043F640008D
:101D9000C4F20200016841F400310160006800F4FF
:101DA000003003900398FFE7FFE70020029043F61E
:101DB0003000C4F20200016841F0010101600068D6
:101DC00000F0010002900298FFE70C20069002202C
:101DD0000790002008900320099007200A90002017
:101DE000C4F2020006A9FEF74BFC3DE00B98006828
:101DF00041F20041C4F20101884234D1FFE7FFE71C
:101E00000020019043F64400C4F20200016841F052
:101E100020010160006800F0200001900198FFE7B8
:101E2000FFE70020009043F63000C4F20200016892
:101E300041F004010160006800F004000090009887
:101E4000FFE7C020069002200790002008900320A2
:101E5000099008200A9040F60000C4F2020006A98A
:101E6000FEF70EFCFFE7FFE7FFE70CB080BD0000C8
:101E7000FFE7FEE784B0FFE70020039043F6300061
:101E8000C4F20200016841F080010160006800F0C6
:101E9000800003900398FFE7FFE70020029043F6DD
:101EA0003000C4F20200016841F0010101600068E5
:101EB00000F0010002900298FFE7FFE70020019088
:101EC00043F63000C4F20200016841F002010160F3
:101ED000006800F0020001900198FFE7FFE7002092
:101EE000009043F63000C4F20200016841F00401A2
:101EF0000160006800F0040000900098FFE704B063
:101F00007047000080B58AB00020099008900790C3
:101F100006900590049003900290019040F2504189
:101F2000C2F2000140F20042C4F200020A604860BE
:101F300088604FF6FF72CA60086188610846FFF743
:101F4000F1FD002803D0FFE7FEF774FBFFE7002058
:101F50000890099040F25040C2F2000008A9FFF733
:101F600039FC002803D0FFE7FEF764FBFFE76020A1
:101F70000190002002900390059040F25041C2F27F
:101F8000000101AA009008461146009AFFF728FDBB
:101F9000002803D0FFE7FEF74DFBFFE740F250407B
:101FA000C2F2000001A90422FFF71AFD002803D0A5
:101FB000FFE7FEF73FFBFFE740F25040C2F20000B0
:101FC00001A90822FFF70CFD002803D0FFE7FEF768
:101FD00031FBFFE740F25040C2F2000001A90C22A1
:101FE000FFF7FEFC002803D0FFE7FEF723FBFFE727
:101FF00040F25040C2F20000FFF76CFC0AB080BD16
:1020000080B58AB00020099008900790069005904E
:10201000049003900290019040F29841C2F20001B6
:1020200040F60002C4F200020A60486088604FF681
:10203000FF72CA60086188610846FFF773FD0028D7
:1020400003D0FFE7FEF7F6FAFFE7002008900990BB
:1020500040F29840C2F2000008A9FFF7BBFB00283D
:1020600003D0FFE7FEF7E6FAFFE7602001900020CB
:1020700002900390059040F29841C2F2000101AA3B
:10208000009008461146009AFFF7AAFC002803D0EA
:10209000FFE7FEF7CFFAFFE740F29840C2F20000F8
:1020A00001A90422FFF79CFC002803D0FFE7FEF7FC
:1020B000C1FAFFE740F29840C2F2000001A90822ED
:1020C000FFF78EFC002803D0FFE7FEF7B3FAFFE727
:1020D00040F29840C2F2000001A90C22FFF780FCF8
:1020E000002803D0FFE7FEF7A5FAFFE740F298408B
:1020F000C2F20000FFF7EEFB0AB080BD80B540F2EF
:10210000E040C2F2000041F20001C4F201010160AE
:102110004FF4E131416000218160C16001610C2216
:1021200042618161C161FFF78DFD002803D0FFE7A7
:10213000FEF780FAFFE780BD80B540F22850C2F27A
:10214000000044F20041C4F2000101604FF4E131AB
:10215000416000218160C16001610C2242618161A6
:10216000C161FFF76FFD002803D0FFE7FEF762FAB9
:10217000FFE780BD80B540F27050C2F2000041F22E
:102180000041C4F2010101604FF4E13141600021DE
:102190008160C16001610C2242618161C161FFF710
:1021A00051FD002803D0FFE7FEF744FAFFE780BDAA
:1021B00080B540F27000C2F200004FF0A041016013
:1021C000082141710121C1710021817102224272F5
:1021D0008172FEF729FC002803D0FFE7FEF72AFAF8
:1021E000FFE780BDFFE7FEE7FFE7FEE788B0079067
:1021F00006910592079800F0070004900498C0F13A
:102200000700052803D3FFE70420019004E00498A9
:10221000C0F107000190FFE7019803900498043093
:10222000062803D8FFE70020009003E00498033855
:102230000090FFE70098029006980399012202FAA5
:1022400001F10139084002998840059B02FA01F129
:1022500001391940084308B070470000704700007A
:102260007047000080B582B0009000980138B0F14E
:10227000807F03D3FFE70120019019E00098013827
:102280004EF21401CEF2000108604FF0FF300F2132
:1022900000F000FE4EF21800CEF2000000210160B6
:1022A0004EF21000CEF20000072202600191FFE71B
:1022B000019802B080BD000080B5FEF799FC80BD9A
:1022C00080B594B008A83021FEF752F8002007909E
:1022D0000690059004900390FFE70020029043F6DB
:1022E0004000C4F20200016841F0805101600068C2
:1022F00000F0805002900298FFE7FFE70020019075
:1023000047F20000C4F200000168022262F38F313C
:102310000160006800F4404001900198FFE701204F
:1023200008904FF48030099002200E904FF4800006
:102330000F9004201090A821119112900720139063
:1023400008A8FEF7D9FE002803D0FFE7FEF772F9D0
:10235000FFE70F20039002200490002105914FF425
:1023600080520692079103A9009008460099FEF753
:10237000F3FC002803D0FFE7FEF75CF9FFE714B099
:1023800080BD00004EF68850CEF20000016841F496
:10239000700101607047000083B0029001910298C3
:1023A0000068009002980021C4F2010188421DD00B
:1023B000FFE70298B0F1804F18D0FFE7029840F293
:1023C0000041C4F20001884210D0FFE7029840F6B5
:1023D0000001C4F20001884208D0FFE7029840F6ED
:1023E0000041C4F2000188420AD1FFE7009820F0C2
:1023F0007000009001984068009908430090FFE742
:1024000002980021C4F20101884235D0FFE702980A
:10241000B0F1804F30D0FFE7029840F20041C4F2A3
:102420000001884228D0FFE7029840F60001C4F27C
:102430000001884220D0FFE7029840F60041C4F234
:102440000001884218D0FFE7029844F20001C4F26C
:102450000101884210D0FFE7029844F20041C4F223
:102460000101884208D0FFE7029844F60001C4F257
:10247000010188420AD1FFE7009820F440700090E3
:102480000198C068009908430090FFE7009820F089
:102490008000019949690843009001988068029979
:1024A000C862019800680299886202980021C4F20B
:1024B0000101884205D1FFE701980069029908638C
:1024C000FFE70298016841F00401016002980121D0
:1024D000416100980299086003B0704785B004908C
:1024E00003910498006A01900498016A21F00101A7
:1024F00001620498406800900498806902900298F4
:1025000020F070000290029820F0030002900398DF
:102510000068029908430290019820F0020001909F
:102520000398806801990843019004980021C4F23F
:10253000010188420ED1FFE7019820F008000190C8
:102540000398C068019908430190019820F00400A5
:102550000190FFE704980021C4F20101884213D1E1
:10256000FFE7009820F480700090009820F400703D
:10257000009003984069009908430090039880698F
:10258000009908430090FFE700980499486002987A
:1025900004998861039840680499486301980499F4
:1025A000086205B07047000085B00490039104985C
:1025B000006A01900498016A21F0100101620498F8
:1025C00040680090049880690290029820F4E040EE
:1025D0000290029820F440700290039800680299DB
:1025E00041EA00200290019820F020000190039819
:1025F0008068019941EA0010019004980021C4F21A
:10260000010188420FD1FFE7019820F0800001907E
:102610000398C068019941EA00100190019820F0E8
:1026200040000190FFE704980021C4F201018842B4
:1026300015D1FFE7009820F480600090009820F406
:102640000060009003984069009941EA8000009082
:1026500003988069009941EA80000090FFE70098A4
:102660000499486002980499886103984068049925
:10267000886301980499086205B0704785B004909A
:1026800003910498006A01900498016A21F4807112
:1026900001620498406800900498C0690290029812
:1026A00020F070000290029820F00300029003983E
:1026B0000068029908430290019820F4007001908C
:1026C00003988068019941EA002001900498002154
:1026D000C4F2010188420FD1FFE7019820F40060A5
:1026E00001900398C068019941EA00200190019887
:1026F00020F480600190FFE704980021C4F20101FA
:10270000884215D1FFE7009820F48050009000988F
:1027100020F40050009003984069009941EA0010AD
:10272000009003988069009941EA00100090FFE74B
:1027300000980499486002980499C8610398406819
:102740000499C86301980499086205B070470000B5
:1027500085B0049003910498006A01900498016A7E
:1027600021F4805101620498406800900498C06987
:102770000290029820F4E0400290029820F4407009
:10278000029003980068029941EA002002900198A3
:1027900020F40050019003988068019941EA0030CC
:1027A000019004980021C4F2010188420BD1FFE797
:1027B000009820F48040009003984069009941EA15
:1027C00080100090FFE700980499486002980499EF
:1027D000C8610398406804990864019804990862E4
:1027E00005B0704780B584B019469446DDF818E00E
:1027F00002900193009240F20400C2F200000078BF
:1028000000280ED0FFE700980199029A51601060ED
:1028100040F20400C2F20000002101708DF80F1098
:102820001FE00298002101720098019A029BD3F8E0
:1028300000C05B68B0EB0C0062EB0302069B181A49
:10284000914109D2FFE700980199029A5160106006
:10285000029801210172FFE70298007A8DF80F00BB
:10286000FFE79DF80F0004B080BD000080B588B080
:10287000079007980068006920F4405007990A689B
:10288000C968084310610798816802694369C06993
:10289000114319430843069007980068C06849F23D
:1028A0000C6188430699084307990968C86007982E
:1028B0000068406920F4407007990A6889690843F4
:1028C00050610798006841F20001C4F2010188429A
:1028D00009D0FFE70798006841F20041C4F2010106
:1028E000884204D1FFE7FEF781FB059003E0FEF785
:1028F0006BFB0590FFE70798C069B0F5004F2FD13B
:10290000FFE705981921A0FB0101079A1368526897
:102910004FEA420CD20F04926246DDF810C00393D6
:102920006346FDF7ADFC48F21F51C5F2EB11A0FB69
:1029300001235B094FEA031C4FF0640E03FB1E00EA
:10294000322303EBC000A0FB0101F82303EA51137B
:102950000CEB4303C1F342111944039B99602EE031
:1029600005981921A0FB0101079A136852684FEAE4
:10297000820C920F02926246DDF808C00193634612
:10298000FDF77EFC48F21F51C5F2EB11A0FB0123BD
:102990005B094FF0640C03FB1C004FF0320C0CEB96
:1029A0000010A0FB01014FF0F00C0CEA511C0CEBE5
:1029B0000313C1F343111944019B9960FFE708B069
:1029C00080BD0000B0B58AB0DDF838C09E46144620
:1029D0000D46CDF814C00493039202919DF8141093
:1029E0008DF824100299039A049B0893079206918C
:1029F00001909DF81D00012823D1FFE70198816B0C
:102A000021F4803181630198C1684FF6BF72CFF61F
:102A1000BD721140C1600198C16821F44011C160CC
:102A20009DF82400012806D1FFE70198C16841F410
:102A30008011C160FFE7019800F034F88DF80300C1
:102A40001BE00198C16841F04001C160019800F0AD
:102A500029F88DF803009DF82100002806D1FFE732
:102A60000198816B41F48031816305E00198816BAD
:102A700021F480318163FFE7FFE79DF81A00012808
:102A80000BD1FFE70198816841F006018160019850
:102A9000816841F020018160FFE79DF803000AB0E2
:102AA000B0BD000083B0019000200090FFE70098C7
:102AB000013000900098B0F1706F04D9FFE7032057
:102AC0008DF80B002EE0FFE701980069C00F002889
:102AD000EDD0FFE70A200090FFE70098002804D01F
:102AE000FFE7009801380090F7E70198016941F08D
:102AF00001010161FFE70098013000900098B0F1FA
:102B0000706F04D9FFE703208DF80B000AE0FFE7A0
:102B100001980069C0070028EDD1FFE700208DF87B
:102B20000B00FFE79DF80B0003B0704781B00090E9
:102B30000098816821F001018160002001B0704798
:102B400083B0019000200090FFE7009801300090D2
:102B50000098B0F1706F04D9FFE703208DF80B00E7
:102B600024E0FFE701980069C00F0028EDD0FFE7DF
:102B700000200090019810210161FFE700980130CA
:102B800000900098B0F1706F04D9FFE703208DF832
:102B90000B000BE0FFE70198006900F0100010281F
:102BA000ECD0FFE700208DF80B00FFE79DF80B004D
:102BB00003B0704784B00290019100200090FFE7BD
:102BC0000098013000900098B0F1706F04D9FFE7D1
:102BD00003208DF80F0026E0FFE702980069C00F80
:102BE0000028EDD0FFE70020009001988001203000
:102BF00002990861FFE70098013000900098B0F159
:102C0000706F04D9FFE703208DF80F000BE0FFE79A
:102C10000298006900F020002028ECD0FFE7002097
:102C20008DF80F00FFE79DF80F0004B0704700001B
:102C300081B000900098406900F0010001B0704739
:102C4000B0B58CB0DDF840C09E4614460D46CDF8B8
:102C50001CC00693059204919DF81C108DF82C1051
:102C60000499059A069B0A93099208910390002003
:102C70008DF80B00039901910199C1F8000E03989A
:102C8000816B41F4001181630398816B21F4002171
:102C900081630398816B21F4802181630398C0686C
:102CA0004006002816D4FFE79DF82300012808D12C
:102CB000FFE70198D0F8001441F00401C0F80014B7
:102CC00007E00198D0F8001421F00401C0F80014C6
:102CD000FFE707E00198D0F8001421F00401C0F8E4
:102CE0000014FFE703981021FFF764FF002804D0C9
:102CF000FFE701208DF80B00FFE70398FFF720FFA7
:102D0000002804D0FFE701208DF80B00FFE700202A
:102D10000090FFE700989DF82110884214D2FFE749
:102D20000198009900EB41104FF0FF31C0F80815F1
:102D30000198009900EB41100021C0F80C15FFE745
:102D4000009801300090E5E7039800218161039825
:102D50004FF0FF3141610398802141620398802147
:102D6000C0F2600181620398E021C0F24001C0F826
:102D700000119DF82200002806D1FFE70398816921
:102D800041F010018161FFE7039881690822CAF2CE
:102D90002032114381619DF80B000CB0B0BD0000E2
:102DA00080B586B00A4604908DF80F10002002907E
:102DB0000498C16821F0C041C1609DF80F0001284E
:102DC00022D1FFE70498C16841F00051C160FFE7DC
:102DD0000A20FDF733FC02980A300290FFE70498BE
:102DE000FFF726FF00210128019107D0FFE7029895
:102DF0000021C82838BF01210191FFE70198C007D1
:102E00000028E5D1FFE72BE09DF80F00002822D134
:102E1000FFE70498C16841F08041C160FFE70A20E4
:102E2000FDF70CFC02980A300290FFE70498FFF7C8
:102E3000FFFE00210028009107D0FFE70298002143
:102E4000C82838BF01210091FFE70098C00700287B
:102E5000E5D1FFE703E001208DF817000CE0FFE764
:102E60000298C82804D1FFE701208DF8170003E07D
:102E700000208DF81700FFE79DF8170006B080BD11
:102E8000FFE7FEE74EF60C50CEF200000068C0F3FC
:102E90000220704782B002468DF8070000919DF92C
:102EA000070000280AD4FFE7009800019DF90710E9
:102EB0004EF20042CEF2000288540BE0009800016E
:102EC0009DF8071001F00F014EF61452CEF20002E9
:102ED0008854FFE702B0704783B00290029800F078
:102EE000070000904EF60C50CEF2000001680191F0
:102EF00001994FF6FF02114001910199009A41EAB0
:102F000002210022C0F2FA5211430191019901609D
:102F100003B0704780B584B000200390FDF776FEC3
:102F20000290FFF7CDF9FEF7A5FFFEF7EBFFFFF7E5
:102F300067F8FFF7E3F8FFF7FFF8FFF71BF9FFF774
:102F400037F9FFE7FDF76AFD69464FF4FA720A6048
:102F500040F2B851C2F20001002301900846019AE4
:102F6000FFF740FC002809D0FFE740F60000C4F25C
:102F700002004FF48071FDF73BFDFFE7E2E7F1EE61
:102F8000100A4FF6FF71C0F2C03120EA010040F094
:102F90004070E1EE100A70470000000000000000E1
:102FA00001020304060708090000000001020304EF
:102FB000D02F00080000002010000000D001000801
:102FC000E02F000810000020C0110000EC010008F4
:102FD0000024F400010100001000000000000000C7
:040000050800019559
:00000001FF
