:020000040800F2
:10000000D0240020A9010008F53E0008293B000883
:10001000F13E0008C1020008DD8200080000000077
:10002000000000000000000000000000793F000810
:100030009D03000800000000753F0008D13F000844
:10004000C3010008C3010008C3010008C301000880
:10005000C3010008C3010008C3010008C301000870
:10006000C3010008C3010008C3010008C301000860
:10007000C3010008C3010008C3010008C301000850
:10008000C3010008C3010008C3010008000000000C
:10009000000000000000000000000000C301000894
:1000A000C3010008C3010008C3010008C301000820
:1000B000C3010008C3010008C3010008C301000810
:1000C000C3010008C3010008C3010008C301000800
:1000D000C3010008C3010008C301000800000000BC
:1000E000C3010008C3010008C301000800000000AC
:1000F000000000000000000000000000C301000834
:1001000000000000C3010008C3010008C30100088B
:1001100000000000000000000000000000000000DF
:10012000C3010008C3010008C3010008C30100089F
:10013000C3010008000000000000000000000000F3
:10014000000000000000000000000000653F000803
:10015000C3010008C3010008C3010008C30100086F
:10016000C3010008C30100080000000000000000F7
:10017000000000000000000000000000000000007F
:1001800000000000C30100080000000000000000A3
:10019000C3010008DFF80CD000F07AF800480047EF
:1001A000A1830008D0240020064880470648004765
:1001B000FEE7FEE7FEE7FEE7FEE7FEE7FEE7FEE717
:1001C000FEE7FEE795400008950100082DE9F05F85
:1001D0000546002092469B468846064681464024B6
:1001E0001BE0284641464746224600F041F8534668
:1001F0005A46C01A914110D311461846224600F0C3
:1002000028F82D1A67EB01084F46224601200021ED
:1002100000F01FF817EB00094E41201EA4F1010465
:10022000DFDC484631462A464346BDE8F09FD2B25D
:1002300001E000F8012B491EFBD270470022F6E7CF
:1002400010B513460A4604461946FFF7F0FF20464C
:1002500010BD202A04DB203A00FA02F1002070478A
:100260009140C2F1200320FA03F3194390407047F4
:10027000202A04DB203A21FA02F00021704721FAFB
:1002800002F3D040C2F12002914008431946704762
:100290001CB509480090094801900546009C06E0FD
:1002A000E06840F0010394E8070098471034AC423E
:1002B000F6D3FFF773FF0000208500084085000893
:1002C000FFE7FEE780B584B0039000200290FFE7CF
:1002D00002980F280CD8FFE70398029900EB8101E0
:1002E0000020C1F88406FFE7029801300290EFE792
:1002F00000200290FFE702990020B0EB912F0BD174
:10030000FFE7039802990144002081F81C02FFE7EF
:10031000029801300290EEE70399002001900870E6
:1003200003994870039A01219170039AC2F8C40698
:10033000039A1176039B40229A71039A5076039A8E
:1003400082F81C06039A82F81D16039981F81F068D
:10035000039981F81E0603981C304FF40071FFF7D3
:100360006DFF039800F507704FF48061FFF766FF9B
:1003700001980399A1F83606C1F83206C1F82E0695
:10038000C1F82A06C1F82606039800F5C7603E2189
:10039000FFF754FF019804B080BD000070470000D3
:1003A00072B6FFE7FEE7000080B584B0039000F06E
:1003B000FBF90290039801900198013048B1FFE7E2
:1003C00040F22D00C2F2000001780198084401902B
:1003D000FFE7FFE700F0E8F90299401A0199884227
:1003E00001D2FFE7F6E704B080BD00008BB00A90B1
:1003F000099100200790069005900890FFE7089863
:100400000F2800F2A281FFE7089901208840079099
:10041000099800680799084006900698079988424D
:1004200040F08E81FFE70998406800F00300012842
:1004300007D0FFE70998406800F0030002282FD199
:10044000FFE70A988068059008984100032000FAA9
:1004500001F10598884305900998C06808994900FA
:1004600000FA01F105980843059005980A998860FB
:100470000A98406805900899012000FA01F1059852
:100480008843059009984068C0F30010089900FA65
:1004900001F105980843059005980A994860FFE71F
:1004A0000998406800F00300032818D0FFE70A9875
:1004B000C068059008984100032000FA01F10598F2
:1004C00088430590099880680899490000FA01F16D
:1004D00005980843059005980A99C860FFE70998B0
:1004E000406800F00300022826D1FFE70A98089927
:1004F0006FF0030202EA51010844006A059008986F
:1005000000F0070081000F2000FA01F105988843F0
:10051000059009980069089901F00701890000FA1F
:1005200001F105980843059005980A99089B02EA8D
:10053000530211440862FFE70A9800680590089882
:100540004100032000FA01F10598884305900998BD
:10055000406800F003000899490000FA01F105988D
:100560000843059005980A990860099880798007E2
:10057000002800F0E480FFE7FFE70020049043F646
:100580004400C4F20200016841F480410160006847
:1005900000F4804004900498FFE7089820F00300DE
:1005A00043F60801C4F2010140580590089800F094
:1005B000030081000F2000FA01F10598884305909F
:1005C0000A980021C4F20201884203D1FFE700200B
:1005D000039034E00A9840F20041C4F202018842DC
:1005E00003D1FFE70120029026E00A9840F60001BF
:1005F000C4F20201884203D1FFE70220019018E013
:100600000A9840F60041C4F20201884203D1FFE794
:10061000032000900AE00A9941F20002C4F20202AB
:100620000720914208BF04200090FFE70098019046
:10063000FFE701980290FFE702980390FFE7039815
:10064000C0B2089901F00301890000FA01F1059890
:10065000084305900598089921F0030143F6080224
:10066000C4F20102885043F60840C4F20100006859
:100670000590069905988843059009988079C006E9
:10068000002805D5FFE70699059808430590FFE780
:10069000059843F60841C4F20101086043F60C4096
:1006A000C4F20100006805900699059888430590FA
:1006B000099880798006002805D5FFE706990598F6
:1006C00008430590FFE7059843F60C41C4F2010189
:1006D000086043F60440C4F20100006805900699E2
:1006E000059888430590099880798007002805D5EA
:1006F000FFE70699059808430590FFE7059843F63C
:100700000441C4F20101086043F60040C4F2010054
:1007100000680590069905988843059009988079A6
:10072000C00728B1FFE70699059808430590FFE741
:10073000059843F60041C4F201010860FFE7FFE7B6
:10074000FFE708980130089059E60BB070470000A9
:1007500083B00290ADF80610029840690090009AAC
:10076000BDF8060002EA0001904340EA0140029908
:10077000886103B07047000082B00190ADF80210AC
:100780008DF801209DF8010028B1FFE7BDF80200B7
:100790000199886105E0BDF80200000401998861B3
:1007A000FFE702B07047000040F6C840C2F2000008
:1007B0000068704780B582B001900198D0F8DC03E2
:1007C00005F05AFB02B080BD80B582B0019001985F
:1007D000D0F8DC0305F060FB02B080BD80B582B0CC
:1007E00001900198006806F06DFE02B080BD000027
:1007F00080B582B001900198006806F06DFE02B0ED
:1008000080BD000082B001908DF8031001989DF822
:100810000310C1EB011100EB8101002088760199E2
:100820009DF80320C2EB021201EB8201C876019908
:100830009DF80320C2EB021201EB820181F8250032
:1008400001999DF80320C2EB021201EB820181F8AD
:10085000240002B07047000082B001908DF80310B0
:1008600001989DF80310C1EB011100EB810090F895
:100870004C0002B07047000082B001908DF8031068
:1008800001989DF80310C1EB011100EB8100806B12
:1008900002B07047B0B58AB094468E4604461098B0
:1008A0000F990E9A08948DF81FE08DF81EC08DF8F0
:1008B0001D308DF81C208DF81B10ADF81800BDF808
:1008C00018000390FFE7089890F8D403012804D19A
:1008D000FFE702208DF82700A8E00899012081F8A1
:1008E000D403FFE7FFE708989DF81F10C1EB011143
:1008F00000EB8101002048769DF81D0008999DF8C5
:100900001F20C2EB021201EB820108759DF81F0047
:100910000899C0EB001201EB820148759DF81B009D
:1009200008999DF81F20C2EB021201EB820181F8A9
:1009300026009DF81E0000F07F0008999DF81F20FA
:10094000C2EB021201EB8201887508989DF81F1016
:10095000FFF758FF9DF81E00000600280AD5FFE7A4
:1009600008989DF81F10C1EB011100EB81010120D7
:10097000C87509E008989DF81F10C1EB011100EB44
:1009800081010020C875FFE70898006806F0A4FD03
:1009900004909DF81B00012811D1FFE79DF81C0071
:1009A00001280BD1FFE7049840B9FFE70398BD2861
:1009B00003D3FFE7BC200390FFE7FFE7FFE79DF8C5
:1009C0001C0008999DF81F20C2EB021201EB820166
:1009D0000876039808999DF81F20C2EB021201EBDC
:1009E00082010885089800689DF81F109DF81E2058
:1009F0009DF81D309DF81CC09DF81B40BDF80C50A3
:100A0000EE46CEF80850CEF80440CEF800C006F00E
:100A100069FE8DF81700FFE70899002081F8D403DC
:100A2000FFE79DF817008DF82700FFE79DF82700E6
:100A30000AB0B0BD82B001908DF803108DF802208D
:100A400002B07047B0B584B094468E4604460B9809
:100A50000A99099A089A03948DF80BE08DF80AC058
:100A60008DF809308DF80820ADF806108DF80500D6
:100A70009DF80A0003999DF80B20C2EB021201EBCE
:100A80008201C8759DF8090003999DF80B20C2EBFF
:100A9000021201EB820181F826009DF80800A8B936
:100AA000FFE703989DF80B10C1EB011100EB8101EA
:100AB000032081F82A009DF8050003999DF80B207A
:100AC000C2EB021201EB820148760AE003989DF81E
:100AD0000B10C1EB011100EB8101022081F82A000B
:100AE000FFE79DF8090001460091032800F20E81FE
:100AF0000099DFE811F0040000016E00B7009DF8D6
:100B00000800012864D1FFE79DF80A0088BBFFE7D1
:100B1000BDF8060058B9FFE703989DF80B10C1EB2C
:100B2000011100EB8101012081F83D00FFE70398EE
:100B30009DF80B10C1EB011100EB810090F83D0016
:100B400058B9FFE703989DF80B10C1EB011100EBBA
:100B50008101002081F82A000AE003989DF80B101B
:100B6000C1EB011100EB8101022081F82A00FFE7AF
:100B70002DE003989DF80B10C1EB011100EB8100F3
:100B8000807E012822D1FFE703989DF80B10C1EB6E
:100B9000011100EB810090F83C0058B9FFE7039881
:100BA0009DF80B10C1EB011100EB8101002081F8D1
:100BB0002A000AE003989DF80B10C1EB011100EB2D
:100BC0008101022081F82A00FFE7FFE7FFE7FFE746
:100BD0009DE09DF80A0010BBFFE703989DF80B10FD
:100BE000C1EB011100EB810090F83D0058B9FFE71F
:100BF00003989DF80B10C1EB011100EB810100205F
:100C000081F82A000AE003989DF80B10C1EB01114E
:100C100000EB8101022081F82A00FFE721E0039820
:100C20009DF80B10C1EB011100EB810090F83C0026
:100C300058B9FFE703989DF80B10C1EB011100EBC9
:100C40008101002081F82A000AE003989DF80B102A
:100C5000C1EB011100EB8101022081F82A00FFE7BE
:100C6000FFE754E09DF80A0010BBFFE703989DF8EA
:100C70000B10C1EB011100EB810090F83D0058B959
:100C8000FFE703989DF80B10C1EB011100EB810108
:100C9000002081F82A000AE003989DF80B10C1EBB0
:100CA000011100EB8101022081F82A00FFE721E019
:100CB00003989DF80B10C1EB011100EB810090F837
:100CC0003C0058B9FFE703989DF80B10C1EB0111E8
:100CD00000EB8101002081F82A000AE003989DF8CA
:100CE0000B10C1EB011100EB8101022081F82A00F9
:100CF000FFE7FFE70BE003989DF80B10C1EB011134
:100D000000EB8101002081F82A0000E0FFE709984C
:100D100003999DF80B20C2EB021201EB8201C8621D
:100D2000BDF8060003999DF80B20C2EB021201EBFF
:100D30008201486303989DF80B10C1EB011100EB91
:100D40008101002081F84C0003999DF80B20C2EB33
:100D5000021201EB820188639DF80B10039AC1EB2C
:100D6000011302EB8302517503999DF80B20C2EB2E
:100D7000021201EB820181F84D00039A10689DF880
:100D80000B10C1EB011102EB81011431927906F0D5
:100D9000BDFD04B0B0BD000080B586B005900598DB
:100DA00000680490049803900598006806F0A4FB7E
:100DB000012840F0E180FFE70598006807F0BEF8E1
:100DC00008B9FFE7D8E00598006807F0B7F8800297
:100DD000002806D5FFE7059801684FF40010486128
:100DE000FFE70598006807F0A9F8C002002806D5BB
:100DF000FFE7059801684FF480104861FFE7059808
:100E0000006807F09BF84001002806D5FFE7059829
:100E100001684FF080604861FFE70598006807F0BF
:100E20008DF88007002805D5FFE7059801680220A6
:100E30004861FFE70598006807F080F88000002807
:100E400022D5FFE7059801684FF0005048610398EC
:100E5000D0F84004C007B0B9FFE70498102106F0AD
:100E6000F3FA049806F0B6FA0598407A022806D1FB
:100E7000FFE705980068012107F00AF8FFE70598E9
:100E8000FFF7A2FCFFE7FFE70598006807F056F8B8
:100E9000C001002804D5FFE7059802F027FDFFE711
:100EA0000598006807F04AF80007002808D5FFE712
:100EB000059800F05DF90598016808204861FFE792
:100EC0000598006807F03AF88001002838D5FFE758
:100ED0000598006806F010FD019000200290FFE7E1
:100EE000029805994979884224D2FFE7019802992E
:100EF00001F00F01C840C007B8B1FFE7039802999D
:100F000000EB4110D0F800050004002806D5FFE7EB
:100F100005989DF8081001F0B7FA05E005989DF8CE
:100F2000081002F091F8FFE7FFE7FFE702980130B1
:100F30000290D5E7059801684FF000704861FFE71F
:100F40000598006806F0FAFF00F010010020B0EBF1
:100F5000111F10D0FFE705980168886920F0100084
:100F60008861059802F034FD05980168886940F0B1
:100F700010008861FFE7FFE706B080BD80B58CB048
:100F80000A900A9820B9FFE701208DF82F0075E03C
:100F90000A98006809900A9890F8D50340B9FFE7CD
:100FA0000A99002081F8D4030A9800F06BF8FFE753
:100FB0000A99032081F8D5030998B0F1A04F04D114
:100FC000FFE70A9900208871FFE70A98006806F099
:100FD000B9F90A9B1868197C8DF8201059689A682D
:100FE000DB680793069205910599069A079BDDF841
:100FF00020C0EE46CEF800C006F0F4F840B1FFE79E
:101000000A99022081F8D50301208DF82F0035E0E0
:101010000A980068012107F01FF840B1FFE70A991C
:10102000022081F8D50301208DF82F0026E00A9BCD
:101030001868197C8DF8101059689A68DB6803935A
:10104000029201910199029A039BDDF810C0EE46CD
:10105000CEF800C006F072FE40B1FFE70A99022008
:1010600081F8D50301208DF82F0007E00A990120AF
:1010700081F8D50300208DF82F00FFE79DF82F00A1
:101080000CB080BD80B58AB0099000200890079010
:1010900006900590049009980068B0F1A04F47D1E0
:1010A000FFE7FFE70020039043F63000C4F20200A0
:1010B000016841F001010160006800F00100039047
:1010C0000398FFE74FF4C0500490022005900020E1
:1010D0000690032007900A2008900020C4F2020026
:1010E00004A9FFF783F9FFE743F63401C4F20201D4
:1010F000086840F080000860FFE70020029043F697
:101100004400C4F20200016841F4804101600068BB
:1011100000F4804002900298FFE7FFE7432001902F
:101120000022114600F012F9019800F005F9FFE7DE
:101130000AB080BD80B582B001900198D0F8DC0380
:1011400004F0ACFF02B080BD80B582B00190019880
:10115000D0F8DC0304F0AEFF02B080BD80B582B0F1
:1011600001900198006806F051FF02B080BD0000B8
:1011700080B582B001900198D0F8DC0304F00AFF3A
:1011800002B080BD80B582B00090FFE7009890F873
:10119000D403012804D1FFE702208DF8070018E0EE
:1011A0000099012081F8D403FFE7FFE70098006869
:1011B000012106F0D1F80098006806F001F9FFE778
:1011C0000099002081F8D403FFE700208DF8070084
:1011D000FFE79DF8070002B080BD000080B582B037
:1011E0000090FFE7009890F8D403012804D1FFE7AE
:1011F00002208DF8070013E00099012081F8D40344
:10120000FFE7FFE70098006806F096FFFFE7009908
:10121000002081F8D403FFE700208DF80700FFE7E6
:101220009DF8070002B080BD40F22D00C2F2000020
:10123000027840F6C841C2F2000108681044086014
:101240007047000080B543F60041C4F2020108680F
:1012500040F400700860086840F480600860086826
:1012600040F480700860032000F08AF80F2000F03E
:1012700005F800F03BF8002080BD000080B582B08A
:10128000009040F22800C2F20000006840F22D01F8
:10129000C2F200010A784FF47A71B1FBF2F1B0FBAF
:1012A000F1F000F0A5FD20B1FFE701208DF8070067
:1012B00018E000980F280DD8FFE700994FF0FF3095
:1012C000002200F043F8009840F23001C2F2000121
:1012D000086003E001208DF8070003E000208DF88E
:1012E0000700FFE79DF8070002B080BD82B0FFE76E
:1012F0000020019043F64400C4F20200016841F46A
:1013000080410160006800F4804001900198FFE78F
:10131000FFE70020009043F64000C4F2020001689D
:1013200041F080510160006800F08050009000980A
:10133000FFE702B07047000080B582B08DF807006B
:101340009DF9070006F0CCFF02B080BD80B586B0E5
:101350008DF81700049103920020029006F0D8FF48
:1013600002909DF91700019002980499039A02F0E7
:10137000C3FD0146019806F0D3FF06B080BD000012
:1013800080B582B00190019806F0ECFF02B080BDFC
:1013900080B584B002900191029820B9FFE7012046
:1013A0008DF80F0021E1019843F60041C4F20201DB
:1013B000096801F00701884212D9FFE7019943F655
:1013C0000040C4F202000170006800F007000199BB
:1013D000884204D0FFE701208DF80F0005E1FFE708
:1013E00002980078800700282AD5FFE70298007845
:1013F0004007002809D5FFE743F60801C4F20201BF
:10140000086840F4E0500860FFE7029800780007A1
:10141000002809D5FFE743F60801C4F20201086875
:1014200040F460400860FFE743F60801C4F202019F
:10143000086820F0F000029A926810430860FFE705
:1014400002980078C00700286ED0FFE70298406835
:10145000012811D1FFE743F60000C4F20200006842
:1014600000F400310020B0EB514F04D1FFE7012020
:101470008DF80F00B9E02CE002984068022805D0F2
:10148000FFE702984068032811D1FFE743F6000008
:10149000C4F20200006800F000710020B0EB516F50
:1014A00004D1FFE701208DF80F009EE010E043F625
:1014B0000000C4F20200006800F002010020B0EB5E
:1014C000510F04D1FFE701208DF80F008DE0FFE7F9
:1014D000FFE743F60801C4F20201086820F00300A8
:1014E000029A526810430860FFF75EF90090FFE728
:1014F00043F60800C4F20200006800F00C000299F4
:101500004968B0EB810F0ED0FFE7FFF74DF9009966
:10151000401A41F28931884204D3FFE703208DF855
:101520000F0062E0E4E7FFE7019843F60041C4F2F0
:101530000201096801F00701884212D2FFE7019910
:1015400043F60040C4F202000170006800F007009A
:101550000199884204D0FFE701208DF80F0044E094
:10156000FFE702980078400700280CD5FFE743F614
:101570000801C4F20201086820F4E050029AD2681F
:1015800010430860FFE702980078000700280DD597
:10159000FFE743F60801C4F20201086820F4604046
:1015A000029A126940EAC2000860FFE700F04CF8B6
:1015B00043F60801C4F202010968C9B20A0948F2F7
:1015C0000451C0F60001895CC84040F22801C2F213
:1015D0000001086040F23000C2F200000068FFF72E
:1015E0004DFE00208DF80F00FFE79DF80F0004B0BE
:1015F00080BD000040F22800C2F200000068704781
:1016000080B5FFF7F7FF43F60801C4F2020109684D
:10161000C1F3822248F21451C0F60001895CC8402F
:1016200080BD000080B5FFF7E5FF43F60801C4F276
:101630000201096889B24A0B48F21451C0F6000150
:10164000895CC84080BD000080B586B00020059050
:1016500004900390029043F60800C4F20200006870
:1016600000F00C000146019140B1FFE70198042809
:101670000AD0FFE7019808280CD04FE042F2004062
:10168000C0F2F40002904FE041F20020C0F27A0074
:10169000029049E043F60400C4F20200016801F040
:1016A0003F01059100684002002813D5FFE743F68B
:1016B0000400C4F202000068C0F3881041F2002167
:1016C000C0F27A01A0FB0101059A0023FEF77EFD1E
:1016D000049012E043F60400C4F202000068C0F374
:1016E000881042F20041C0F2F401A0FB0101059A0A
:1016F0000023FEF76BFD0490FFE743F60400C4F2FD
:101700000200006800F44031022000EBD130039069
:1017100004980399B0FBF1F0029005E042F200401A
:10172000C0F2F4000290FFE7029806B080BD00000E
:1017300080B586B00490049820B9FFE701208DF8A9
:10174000170050E304980078C007002800F0A58037
:10175000FFE743F60800C4F20200006800F00C0046
:10176000042813D0FFE743F60800C4F20200006823
:1017700000F00C0008281ED1FFE743F60400C4F275
:10178000020000684002002815D5FFE743F600007C
:10179000C4F20200006800F400310020B0EB514FA9
:1017A00008D0FFE70498406820B9FFE701208DF8D2
:1017B000170018E370E0FFE704984068B0F5803F39
:1017C00009D1FFE743F60001C4F20201086840F4C2
:1017D0008030086020E004984068B0F5A02F0DD15B
:1017E000FFE743F60001C4F20201086840F48020DC
:1017F0000860086840F4803008600CE043F600019F
:10180000C4F20201086820F480300860086820F4FF
:1018100080200860FFE7FFE7FFE704984068E8B131
:10182000FFE7FEF7C1FF0390FFE743F60000C4F2B5
:101830000200006800F400310020B0EB514F0CD1E1
:10184000FFE7FEF7B1FF0399401A652804D3FFE7CD
:1018500003208DF81700C6E2E7E71CE0FEF7A4FFBF
:101860000390FFE743F60000C4F20200006800F4B2
:1018700000310020B0EB514F0CD0FFE7FEF794FF92
:101880000399401A652804D3FFE703208DF8170059
:10189000A9E2E7E7FFE7FFE7FFE7049800788007A2
:1018A000002840F19680FFE743F60800C4F20200EA
:1018B000006810F00C0F13D0FFE743F60800C4F2E5
:1018C0000200006800F00C0008282CD1FFE743F666
:1018D0000400C4F2020000684002002823D4FFE79D
:1018E00043F60000C4F20200006800F0020100208C
:1018F000B0EB510F09D0FFE70498C068012804D06D
:10190000FFE701208DF817006DE243F60001C4F2F5
:101910000201086820F0F800049A126940EAC20047
:101920000860FFE754E00498C06870B3FFE7002147
:10193000C4F2472101200860FEF736FF0390FFE75D
:1019400043F60000C4F20200006800F0020100202B
:10195000B0EB510F0CD1FFE7FEF726FF0399401AB9
:10196000032804D3FFE703208DF817003BE2E7E7E5
:1019700043F60001C4F20201086820F0F800049A5E
:10198000126940EAC200086021E00021C4F2472148
:1019900000200860FEF708FF0390FFE743F6000011
:1019A000C4F20200006800F002010020B0EB510F09
:1019B0000CD0FFE7FEF7F8FE0399401A032804D382
:1019C000FFE703208DF817000DE2E7E7FFE7FFE7E9
:1019D000FFE704980078000700284BD5FFE704983C
:1019E000406918B3FFE740F68061C4F24721012047
:1019F0000860FEF7D9FE0390FFE743F67400C4F2D7
:101A00000200006800F002010020B0EB510F0CD181
:101A1000FFE7FEF7C9FE0399401A032804D3FFE746
:101A200003208DF81700DEE1E7E722E040F6806151
:101A3000C4F2472100200860FEF7B6FE0390FFE7DE
:101A400043F67400C4F20200006800F002010020B6
:101A5000B0EB510F0CD0FFE7FEF7A6FE0399401A3A
:101A6000032804D3FFE703208DF81700BBE1E7E765
:101A7000FFE7FFE7049800784007002840F1CE8098
:101A8000FFE700208DF8070043F64000C4F2020093
:101A90000068C000002815D4FFE7FFE70020009091
:101AA00043F64000C4F20200016841F08051016039
:101AB000006800F0805000900098FFE701208DF84A
:101AC0000700FFE747F20000C4F200000068C0050D
:101AD000002822D4FFE747F20001C4F200010868A1
:101AE00040F480700860FEF75FFE0390FFE747F266
:101AF0000000C4F200000068C00500280CD4FFE715
:101B0000FEF752FE0399401A032804D3FFE703208F
:101B10008DF8170067E1EAE7FFE7FFE704988068C0
:101B2000012809D1FFE743F67001C4F202010868F9
:101B300040F0010008601FE00498806805280DD17E
:101B4000FFE743F67001C4F20201086840F00400A8
:101B50000860086840F0010008600CE043F670017E
:101B6000C4F20201086820F001000860086820F053
:101B700004000860FFE7FFE7FFE704988068F8B11A
:101B8000FFE7FEF711FE0390FFE743F67000C4F293
:101B90000200006800F002010020B0EB510F0ED1EE
:101BA000FFE7FEF701FE0399401A41F289318842AE
:101BB00004D3FFE703208DF8170014E1E5E71EE0EA
:101BC000FEF7F2FD0390FFE743F67000C4F2020057
:101BD000006800F002010020B0EB510F0ED0FFE7CB
:101BE000FEF7E2FD0399401A41F28931884204D39D
:101BF000FFE703208DF81700F5E0E5E7FFE79DF824
:101C00000700012809D1FFE743F64001C4F20201B1
:101C1000086820F080500860FFE7FFE704988069BB
:101C2000002800F0DC80FFE743F60800C4F2020061
:101C3000006800F00C00082800F08580FFE7049899
:101C4000806902285CD1FFE76021C4F247210020AF
:101C50000860FEF7A9FD0390FFE743F60000C4F219
:101C60000200006800F000710020B0EB516F0CD052
:101C7000FFE7FEF799FD0399401A032804D3FFE715
:101C800003208DF81700AEE0E7E70499C869D1F8A2
:101C900020C04B6A8A6A40EA0C0040EA8310D203F3
:101CA0004FF6FF739A43A2F580321043C96A40EAA7
:101CB000016043F60401C4F2020108606021C4F22D
:101CC000472101200860FEF76FFD0390FFE743F610
:101CD0000000C4F20200006800F000710020B0EBC8
:101CE000516F0CD1FFE7FEF75FFD0399401A0328FF
:101CF00004D3FFE703208DF8170074E0E7E721E045
:101D00006021C4F2472100200860FEF74DFD0390DA
:101D1000FFE743F60000C4F20200006800F0007123
:101D20000020B0EB516F0CD0FFE7FEF73DFD0399AB
:101D3000401A032804D3FFE703208DF8170052E070
:101D4000E7E7FFE74AE004988069012804D1FFE74C
:101D500001208DF8170046E043F60400C4F20200AB
:101D60000068029004988069012831D0FFE702984A
:101D700000F480000499C969884229D1FFE70298DC
:101D800000F03F000499096A884221D1FFE70298D8
:101D900047F6C07108400499496AB0EB811F17D11A
:101DA000FFE7029800F440300499896AC9034FF6AE
:101DB000FF729143A1F58031884209D1FFE7029873
:101DC00000F070600499C96AB0EB016F04D0FFE7BE
:101DD00001208DF8170006E0FFE7FFE7FFE700208E
:101DE0008DF81700FFE79DF8170006B080BD0000D2
:101DF00080B582B00190019802F0C0F802B080BDB9
:101E000085B003900291FFE7039890F83C00012809
:101E100004D1FFE702208DF813006CE00399012044
:101E200081F83C00FFE7FFE70399022081F83D00BD
:101E300003980068406801900398006880680090EB
:101E4000019820F070000190029801680198084301
:101E5000019001980399096848600398006800217F
:101E6000C4F2010188422AD0FFE703980068B0F16C
:101E7000804F24D0FFE70398006840F20041C4F28D
:101E8000000188421BD0FFE70398006840F600017C
:101E9000C4F20001884212D0FFE70398006840F6C0
:101EA0000041C4F20001884209D0FFE703980068AE
:101EB00044F20001C4F2010188420ED1FFE700980C
:101EC00020F080000090029841680098084300903C
:101ED0000098039909688860FFE70399012081F859
:101EE0003D00FFE70399002081F83C00FFE7002058
:101EF0008DF81300FFE79DF8130005B07047000050
:101F000080B58CB00B9000200A9009900890079043
:101F100006900B98006840F20041C4F2000188422C
:101F200043D1FFE7FFE70020059043F63000C4F2FD
:101F30000200016841F001010160006800F0010049
:101F400005900598FFE7FFE70020049043F6300076
:101F5000C4F20200016841F002010160006800F073
:101F6000020004900498FFE7C02006900220019030
:101F7000079000210091089109910A900020C4F275
:101F8000020006A90291FEF731FA009A019802991F
:101F9000032306930790089209920A9040F20040AA
:101FA000C4F20200FEF722FA2BE00B98006840F61C
:101FB0000001C4F20001884222D1FFE7FFE70020C0
:101FC000039043F63000C4F20200016841F00201C0
:101FD0000160006800F0020003900398FFE74FF4EF
:101FE00070700690022007900021089109910A90D4
:101FF00040F20040C4F2020006A9FEF7F7F9FFE73D
:10200000FFE70CB080BD000080B586B0049003915E
:10201000029200208DF80700FFE7049890F83C003A
:10202000012804D1FFE702208DF8170089E0049908
:10203000012081F83C00FFE7FFE7029800900C28A0
:1020400000F270800099DFE801F0076D6D6D206D82
:102050006D6D3A6D6D6D530004980068039902F040
:10206000C5F804980168886940F008008861049800
:102070000168886920F00400886103980269049867
:10208000016888691043886150E0049800680399EA
:1020900002F012F904980168886940F400608861D0
:1020A00004980168886920F4806088610398026957
:1020B00004980168886940EA0220886136E0049843
:1020C0000068039902F062F904980168C86940F059
:1020D0000800C86104980168C86920F00400C8615C
:1020E0000398026904980168C8691043C8611DE03B
:1020F00004980068039902F0B3F904980168C8696C
:1021000040F40060C86104980168C86920F48060E8
:10211000C8610398026904980168C86940EA02200E
:10212000C86103E001208DF80700FFE7FFE704998D
:10213000002081F83C00FFE79DF807008DF81700AC
:10214000FFE79DF8170006B080BD000080B582B0A3
:102150000090009820B9FFE701208DF807003FE0CC
:10216000009890F83D0040B9FFE70099002081F801
:102170003C00009800F038F8FFE70099022081F851
:102180003D00009951F8040B01F08EFF00990120E9
:1021900081F84600FFE70099012081F83E00009990
:1021A00081F83F00009981F84000009981F84100D2
:1021B000FFE7FFE70099012081F84200009981F8CC
:1021C0004300009981F84400009981F84500FFE739
:1021D0000099012081F83D0000208DF80700FFE7FD
:1021E0009DF8070002B080BD83B00290029800689D
:1021F00040F20041C4F20001884212D1FFE7FFE73C
:102200000020019043F64000C4F20200016841F052
:1022100002010160006800F0020001900198FFE7F0
:102220001BE00298006840F60001C4F200018842F9
:1022300012D1FFE7FFE70020009043F64000C4F210
:102240000200016841F004010160006800F0040030
:1022500000900098FFE7FFE7FFE703B0704700003A
:1022600080B582B00090009820B9FFE701208DF87A
:10227000070040E00098806908B1FFE700E0FFE751
:10228000009890F8410040B9FFE70099002081F8DC
:102290004000009800F034F8FFE70099242081F80E
:1022A000410000980168C86820F40050C860009898
:1022B00002F05EF900980168086920F49040086116
:1022C00000980168486920F02A0048610098016878
:1022D000C86840F40050C860009900204864009A23
:1022E000202182F84110009A82F842100099486338
:1022F0008DF80700FFE79DF8070002B080BD0000E1
:1023000080B58CB00B9000200A900990089007903F
:1023100006900B98006841F20001C4F20101884266
:1023200034D1FFE7FFE70020059043F64400C4F2F4
:102330000200016841F010010160006800F0100027
:1023400005900598FFE7FFE70020049043F6300072
:10235000C4F20200016841F001010160006800F070
:10236000010004900498FFE74FF4C060069002203B
:102370000790002008900320099007200A90002071
:10238000C4F2020006A9FEF731F87AE00B98006863
:1023900044F20041C4F20001884233D1FFE7FFE775
:1023A0000020039043F64000C4F20200016841F4AB
:1023B00000310160006800F4003003900398FFE7EB
:1023C000FFE70020029043F63000C4F202000168EB
:1023D00041F001010160006800F0010002900298E4
:1023E000FFE70C20069002200790002008900320B1
:1023F000099007200A900020C4F2020006A9FDF708
:10240000F5FF3DE00B98006841F20041C4F2010184
:10241000884234D1FFE7FFE70020019043F64400F3
:10242000C4F20200016841F020010160006800F080
:10243000200001900198FFE7FFE70020009043F69D
:102440003000C4F20200016841F00401016000683C
:1024500000F0040000900098FFE7C02006900220E2
:102460000790002008900320099008200A9040F669
:102470000000C4F2020006A9FDF7B8FFFFE7FFE77E
:10248000FFE70CB080BD000080B586B005908DF8E8
:10249000131005980068039003980290059800684F
:1024A0009DF8131005F02EFD4007002819D5FFE711
:1024B00002989DF8131000EB41110420C1F80805A3
:1024C00005989DF81310C1EB011100EB8101072065
:1024D00081F84D00059800689DF8131005F014F878
:1024E00092E0059800689DF8131005F00BFDC005FB
:1024F00000281AD5FFE702989DF8131000EB411150
:102500004FF48070C1F8080505989DF81310C1EBD1
:10251000011100EB8101082081F84D000598006849
:102520009DF8131004F0F0FF6DE0059800689DF829
:10253000131005F0E7FC0007002819D5FFE7029803
:102540009DF8131000EB41110820C1F8080505980B
:102550009DF81310C1EB011100EB8101062081F8F9
:102560004D00059800689DF8131004F0CDFF49E078
:10257000059800689DF8131005F0C4FC400500287C
:102580001AD5FFE702989DF8131000EB41114FF4A4
:102590008060C1F8080505989DF81310C1EB011182
:1025A00000EB8101092081F84D00059800689DF835
:1025B000131004F0A9FF24E0059800689DF813109B
:1025C00005F0A0FC0006002819D5FFE702989DF849
:1025D000131000EB41118020C1F8080505989DF803
:1025E0001310C1EB011100EB8101072081F84D00B0
:1025F000059800689DF8131004F086FF00E0FFE7DF
:10260000FFE7FFE7FFE7FFE7059800689DF8131075
:1026100005F078FC8005002811D5FFE705980068D3
:102620009DF8131004F070FF02989DF8131000EB52
:1026300041114FF40070C1F8080500F003BD059882
:1026400000689DF8131005F05DFCC007002800F03D
:10265000F580FFE702989DF8131000EB4111202050
:10266000C1F8080505989DF81310C1EB011100EBA6
:102670008100C07E012815D1FFE705989DF8131051
:10268000C1EB011100EB81010020C87602989DF892
:10269000131000EB4111D1F8040520F48030C1F88B
:1026A0000405FFE705988079C8B1FFE705989DF814
:1026B0001320C2EB021100EB8100006B029901EBC9
:1026C0004211D1F810156FF3DF41401A05999DF8BA
:1026D0001320C2EB021201EB82018863FFE7059829
:1026E0009DF81310C1EB011100EB8101012081F86D
:1026F0004D0005999DF81320C2EB021201EB8202F6
:102700000021516402999DF8132001EB4211C1F898
:10271000080505989DF81310C1EB011100EB81002D
:1027200090F8260060B1FFE705989DF81310C1EB03
:10273000011100EB810090F8260002280FD1FFE77D
:10274000059800689DF8131004F0DEFE02989DF8CD
:10275000131000EB41111020C1F808053AE005986C
:102760009DF81310C1EB011100EB810090F82600D9
:1027700003280CD0FFE705989DF81310C1EB011159
:1027800000EB810090F82600012821D1FFE7029894
:102790009DF8131000EB4111D1F8000540F00050F6
:1027A000C1F8000505989DF81310C1EB011100EB6D
:1027B0008101012081F84C0005989DF81310C1EBB0
:1027C000011200EB820292F84C20FEF733F900E090
:1027D000FFE7FFE70598807901281FD1FFE70598FB
:1027E0009DF81310C1EB011100EB8101886B098D7D
:1027F00008440138B0FBF1F0C00770B1FFE705985D
:102800009DF81310C1EB011100EB810191F83C0020
:1028100080F0010081F83C00FFE70DE005989DF88D
:102820001310C1EB011100EB810191F83C0080F025
:10283000010081F83C00FFE700F003BC0598006848
:102840009DF8131005F05EFB800600282ED5FFE7EB
:1028500002989DF8131000EB41112020C1F80805E3
:1028600005989DF81310C1EB011100EB8100807EEB
:1028700001281AD1FFE705989DF81310C1EB01114B
:1028800000EB81010120C87605989DF81310C1EB7B
:10289000011100EB8101032081F84D0005980068CB
:1028A0009DF8131004F030FEFFE7C9E305980068B7
:1028B0009DF8131005F026FB8007002840F1DD820B
:1028C000FFE702989DF8131000EB41110220C1F8B8
:1028D000080505989DF81310C1EB011100EB81006C
:1028E00090F84D00012815D1FFE705989DF81310C9
:1028F000C1EB011100EB8101022081F84D00059828
:102900009DF81310C1EB011100EB8101012081F84A
:102910004C00A6E205989DF81310C1EB011100EBE5
:10292000810090F84D00062815D1FFE705989DF825
:102930001310C1EB011100EB8101022081F84D0061
:1029400005989DF81310C1EB011100EB81010520E2
:1029500081F84C0084E205989DF81310C1EB011139
:1029600000EB810090F84D0007280DD0FFE7059897
:102970009DF81310C1EB011100EB810090F84D00A0
:10298000092840F09880FFE705989DF81310C1EBE7
:10299000011100EB8101022081F84D0005989DF89E
:1029A0001310C1EB011100EB8101486C0130486448
:1029B00005989DF81310C1EB011100EB8100406CEC
:1029C00003283CD3FFE705989DF81310C1EB0111D4
:1029D00000EB81010020486405989DF81310C1EBBD
:1029E000011100EB8100807E01281DD1FFE70598D1
:1029F0009DF81310C1EB011100EB81010020C87696
:102A000005999DF81320C2EB021201EB82010877B1
:102A100002989DF8131000EB4111D1F8040520F441
:102A20008030C1F80405FFE705989DF81310C1EB4D
:102A3000011100EB8101042081F84C003AE0059877
:102A40009DF81310C1EB011100EB8101022081F808
:102A50004C0005989DF81310C1EB011100EB8100AB
:102A600090F8260060B1FFE705989DF81310C1EBC0
:102A7000011100EB810090F82600022819D1FFE730
:102A800002989DF8131000EB4110D0F8000501905A
:102A9000019820F080400190019840F000400190A2
:102AA000019802999DF8132001EB4211C1F800052D
:102AB000FFE7FFE7D3E105989DF81310C1EB011183
:102AC00000EB810090F84D00052840F0BD80FFE745
:102AD00005989DF81310C1EB011100EB8101022054
:102AE00081F84D0005989DF81310C1EB011100EB22
:102AF0008100C07E012840F0A680FFE705989DF880
:102B00001310C1EB011100EB810090F8260003289F
:102B10005DD1FFE705989DF81310C1EB011100EBA3
:102B20008101886C0130886405989DF81310C1EB11
:102B3000011100EB8100806C03283CD3FFE705986E
:102B40009DF81310C1EB011100EB81010020886496
:102B500005999DF81320C2EB021201EB8201C876A1
:102B600005989DF81310C1EB011100EB8100406C3A
:102B700002280AD8FFE705989DF81310C1EB011150
:102B800000EB810101200877FFE702989DF8131000
:102B900000EB4111D1F8040520F48030C1F80405A0
:102BA00005989DF81310C1EB011100EB8101042081
:102BB00081F84C000AE005989DF81310C1EB011153
:102BC00000EB8101022081F84C00FFE70AE0059844
:102BD0009DF81310C1EB011100EB8101022081F877
:102BE0004C00FFE705989DF81310C1EB011100EBB5
:102BF000810090F8260060B1FFE705989DF813105A
:102C0000C1EB011100EB810090F82600022819D1D8
:102C1000FFE702989DF8131000EB4110D0F8000573
:102C20000190019820F080400190019840F0004010
:102C30000190019802999DF8132001EB4211C1F80F
:102C40000005FFE7FFE709E105989DF81310C1EBC8
:102C5000011100EB810090F84D00032872D1FFE7CD
:102C600005989DF81310C1EB011100EB81010220C2
:102C700081F84D0005989DF81310C1EB011100EB90
:102C80008100C07E01285CD1FFE705989DF81310F4
:102C9000C1EB011100EB8101022081F84C00029888
:102CA0009DF8131000EB4111D1F8040540F4803079
:102CB000C1F8040502989DF8131000EB4111D1F8FA
:102CC0000C0540F04000C1F80C0502989DF8131067
:102CD00000EB4111D1F80C0520F02000C1F80C05E3
:102CE00005989DF81310C1EB011100EB810090F8DD
:102CF000260060B1FFE705989DF81310C1EB0111A4
:102D000000EB810090F82600022819D1FFE7029815
:102D10009DF8131000EB4110D0F8000501900198C8
:102D200020F080400190019840F00040019001980F
:102D300002999DF8132001EB4211C1F80005FFE74D
:102D4000FFE78AE005989DF81310C1EB011100EB35
:102D5000810090F84D00042844D1FFE705989DF8C4
:102D60001310C1EB011100EB8101022081F84D002D
:102D700005999DF81320C2EB021201EB820181F844
:102D80004C0005989DF81310C1EB011100EB810078
:102D900090F8260060B1FFE705989DF81310C1EB8D
:102DA000011100EB810090F82600022819D1FFE7FD
:102DB00002989DF8131000EB4110D0F80005019027
:102DC000019820F080400190019840F0004001906F
:102DD000019802999DF8132001EB4211C1F80005FA
:102DE000FFE739E005989DF81310C1EB011100EBE6
:102DF000810090F84D0008281FD1FFE705989DF845
:102E00001310C1EB011100EB8101022081F84D008C
:102E100005989DF81310C1EB011100EB8101486C7E
:102E20000130486405989DF81310C1EB011100EBC7
:102E30008101042081F84C000DE005989DF81310E5
:102E4000C1EB011100EB810090F84D00022801D187
:102E5000FFE7F7E0FFE7FFE7FFE7FFE7FFE7FFE751
:102E6000FFE705989DF81310C1EB011200EB8202F9
:102E700092F84C20FDF7DEFDE1E0059800689DF832
:102E8000131005F03FF8400600282DD5FFE7029803
:102E90009DF8131000EB41114020C1F8080505987A
:102EA0009DF81310C1EB011100EB8101052081F8A1
:102EB0004D0005989DF81310C1EB011100EB810046
:102EC000807E50B9FFE705989DF81310C1EB011102
:102ED00000EB810100204864FFE7059800689DF839
:102EE000131004F011FBA9E0059800689DF8131079
:102EF00005F008F8C006002840F19E80FFE705981D
:102F00009DF81310C1EB011100EB810090F8260031
:102F100003281AD1FFE705989DF81310C1EB0111A2
:102F200000EB81010020486405989DF81310C1EB67
:102F3000011100EB8101042081F84D000598006823
:102F40009DF8131004F0E0FA42E005989DF8131084
:102F5000C1EB011100EB810090F8260060B1FFE7A2
:102F600005989DF81310C1EB011100EB810090F85A
:102F7000260002282AD1FFE705989DF81310C1EB1F
:102F8000011100EB8101002048640598807958B157
:102F9000FFE705989DF81310C1EB011100EB8100CC
:102FA000C07E012811D1FFE705989DF81310C1EBF1
:102FB000011100EB8101042081F84D0005980068A3
:102FC0009DF8131004F0A0FAFFE700E0FFE7FFE729
:102FD00005989DF81310C1EB011100EB8100C07E34
:102FE000012820D1FFE705989DF81310C1EB0111CE
:102FF00000EB81010020C87602989DF8131000EBC9
:103000004111D1F8040520F48030C1F8040502987C
:103010009DF8131000EB4111D1F80C0540F0200091
:10302000C1F80C05FFE702989DF8131000EB411161
:103030001020C1F8080500E0FFE7FFE7FFE7FFE722
:10304000FFE7FFE706B080BD80B586B005908DF83C
:103050001310059800680390039802900598006883
:103060009DF8131004F04EFF400700281AD5FFE723
:1030700002989DF8131000EB41110420C1F80805D7
:1030800005989DF81310C1EB011100EB8101072099
:1030900081F84D00059800689DF8131004F034FA8B
:1030A00000F022BC059800689DF8131004F02AFF78
:1030B000800600287DD5FFE702989DF8131000EBED
:1030C00041112020C1F8080505989DF81310C1EBA7
:1030D000011100EB8100407E012824D1FFE7059813
:1030E0009DF81310C1EB011100EB8101002048761F
:1030F00005989DF81310C1EB011100EB810102202E
:1031000081F84C0005989DF81310C1EB011100EBFC
:103110008101032081F84D00059800689DF8131087
:1031200004F0F2F9FFE705989DF81310C1EB0111C7
:1031300000EB8100807E01283AD1FFE705989DF8D9
:103140001310C1EB011100EB8100C07E80BBFFE7D3
:1031500005989DF81310C1EB011100EB810090F868
:10316000260001280AD0FFE705989DF81310C1EB4F
:10317000011100EB81010120C876FFE705989DF859
:103180001310C1EB011100EB8101032081F84D0008
:10319000059800689DF8131004F0B6F905989DF89D
:1031A0001310C1EB011100EB810100204864FFE71F
:1031B00099E3059800689DF8131004F0A3FE8005BC
:1031C000002810D5FFE702989DF8131000EB41117D
:1031D0004FF40070C1F80805059800689DF81310B9
:1031E00004F092F97EE3059800689DF8131004F04E
:1031F00089FEC00700285CD0FFE705989DF81310F2
:10320000C1EB011100EB81010020486405980068C2
:103210009DF8131004F076FE4006002812D5FFE753
:1032200005989DF81310C1EB011100EB81010120FD
:10323000487602989DF8131000EB41114020C1F828
:103240000805FFE705989DF81310C1EB011100EB8D
:103250008100C07EA8B1FFE705989DF81310C1EB6F
:10326000011100EB81010020C87602989DF813102F
:1032700000EB4111D1F8040520F48030C1F80405B9
:10328000FFE702989DF8131000EB41110120C1F8EF
:10329000080505999DF81320C2EB021201EB82018B
:1032A00081F84D00059800689DF8131004F02CF982
:1032B00017E3059800689DF8131004F023FE4006FC
:1032C000002836D5FFE705989DF81310C1EB0111D2
:1032D00000EB8101052081F84D0005989DF8131041
:1032E000C1EB011100EB8100807E50B9FFE705982A
:1032F0009DF81310C1EB011100EB8101012048760C
:10330000FFE705989DF81310C1EB011100EB810157
:1033100000204864059800689DF8131004F0F4F844
:1033200002989DF8131000EB41114020C1F80805E8
:10333000D6E2059800689DF8131004F0E3FD00073D
:10334000002819D5FFE702989DF8131000EB4111F2
:103350000820C1F8080505989DF81310C1EB01116C
:1033600000EB8101062081F84D00059800689DF86A
:10337000131004F0C9F8B2E2059800689DF8131024
:1033800004F0C0FDC006002841D5FFE705989DF870
:103390001310C1EB011100EB810100204864059876
:1033A0009DF81310C1EB011100EB8101042081F89D
:1033B0004D0005989DF81310C1EB011100EB810041
:1033C000407EA8B9FFE705989DF81310C1EB0111E5
:1033D00000EB8100007E50B9FFE705989DF81310BF
:1033E000C1EB011100EB810101204876FFE7FFE707
:1033F000059800689DF8131004F086F802989DF86F
:10340000131000EB41111020C1F8080566E2059881
:1034100000689DF8131004F075FD0006002876D5AD
:10342000FFE70598807988B9FFE705989DF81310A4
:10343000C1EB011100EB8101072081F84D000598D7
:1034400000689DF8131004F05FF857E005989DF8A8
:103450001310C1EB011100EB8101486C013048648D
:1034600005989DF81310C1EB011100EB8100406C31
:1034700003281FD3FFE705989DF81310C1EB011136
:1034800000EB81010020486405989DF81310C1EB02
:10349000011100EB8101042081F84C0005989DF892
:1034A0001310C1EB011200EB820292F84C20FDF7E1
:1034B000C1FA22E005989DF81310C1EB011100EB51
:1034C0008101022081F84C0002989DF8131000EB56
:1034D0004110D0F800050190019820F08040019043
:1034E000019840F000400190019802999DF8132046
:1034F00001EB4211C1F80005FFE7FFE702989DF8D4
:10350000131000EB41118020C1F80805E5E1059892
:1035100000689DF8131004F0F5FC400500281AD54A
:10352000FFE705989DF81310C1EB011100EB810135
:10353000092081F84D00059800689DF8131003F0EC
:10354000E3FF02989DF8131000EB41114FF48060E7
:10355000C1F80805C0E1059800689DF8131004F053
:10356000D1FC8007002840F1B581FFE702989DF863
:10357000131000EB41110220C1F8080505989DF8D1
:103580001310C1EB011100EB810090F84D000128F0
:1035900071D1FFE705989DF81310C1EB011100EB05
:1035A0008101022081F84D0005989DF81310C1EBB0
:1035B000011100EB8101012081F84C0005989DF874
:1035C0001310C1EB011100EB810090F826000228D6
:1035D0000CD0FFE705989DF81310C1EB011100EB2B
:1035E000810090F82600032844D1FFE705988079F0
:1035F00070B9FFE705989DF81310C1EB011100EBBE
:10360000810191F83D0080F0010081F83D00FFE765
:103610000598807901282CD1FFE705989DF81310B3
:10362000C1EB011100EB8100406B10B3FFE705987F
:103630009DF81310C1EB011100EB8101486B098D5E
:1036400008440138B0FBF1F000909DF80000C0077D
:1036500070B1FFE705989DF81310C1EB011100EB65
:10366000810191F83D0080F0010081F83D00FFE705
:10367000FFE7FFE722E105989DF81310C1EB011168
:1036800000EB810090F84D00032821D1FFE7059859
:103690009DF81310C1EB011100EB8101022081F8AC
:1036A0004D0005989DF81310C1EB011100EB81004E
:1036B000C07E01280BD1FFE705989DF81310C1EBE0
:1036C000011100EB8101022081F84C00FFE7F4E0DA
:1036D00005989DF81310C1EB011100EB810090F8E3
:1036E0004D00042834D1FFE705989DF81310C1EB75
:1036F000011100EB8101022081F84D0005999DF830
:103700001320C2EB021201EB820181F84C000598F4
:103710009DF81310C1EB011100EB8100C07E012860
:1037200015D1FFE705989DF81310C1EB011100EBCF
:1037300081010020C87602989DF8131000EB41111A
:10374000D1F8040520F48030C1F80405FFE7B3E0A8
:1037500005989DF81310C1EB011100EB810090F862
:103760004D00052814D1FFE705989DF81310C1EB13
:10377000011100EB8101022081F84D0005999DF8AF
:103780001320C2EB021201EB820181F84C0092E09F
:1037900005989DF81310C1EB011100EB810090F822
:1037A0004D00062815D1FFE705989DF81310C1EBD1
:1037B000011100EB8101022081F84D0005989DF870
:1037C0001310C1EB011100EB8101052081F84C00C1
:1037D00070E005989DF81310C1EB011100EB81001A
:1037E00090F84D0007280CD0FFE705989DF81310BE
:1037F000C1EB011100EB810090F84D00092857D171
:10380000FFE705989DF81310C1EB011100EB810152
:10381000022081F84D0005989DF81310C1EB0111AD
:1038200000EB8101486C0130486405989DF8131045
:10383000C1EB011100EB8100406C032814D3FFE7BA
:1038400005989DF81310C1EB011100EB81010020D8
:10385000486405989DF81310C1EB011100EB81013C
:10386000042081F84C0022E005989DF81310C1EB6C
:10387000011100EB8101022081F84C0002989DF8B3
:10388000131000EB4110D0F800050190019820F0D2
:1038900080400190019840F0004001900198029909
:1038A0009DF8132001EB4211C1F80005FFE700E08D
:1038B0001AE0FFE7FFE7FFE7FFE7FFE705989DF85E
:1038C0001310C1EB011200EB820292F84C20FDF7BD
:1038D000B1F800E008E0FFE7FFE7FFE7FFE7FFE7F9
:1038E000FFE7FFE7FFE7FFE706B080BD80B586B0E2
:1038F0000590059800680490049803900398D0F808
:10390000400402900398D0F840040190019820F000
:103910002E0001900298800700280DD5FFE702983D
:10392000C00720B1FFE70598FCF744FFFFE70198C7
:1039300040F002000190FFE702980007002837D509
:10394000FFE7019840F00800019002984007002826
:1039500029D5FFE70598407A022814D1FFE702989D
:1039600000F4C020B0F5802F06D1FFE7059800686D
:10397000022104F08DFA05E005980068012104F0A9
:1039800087FAFFE70BE00598C079012806D1FFE729
:1039900003994EF66020C1F80404FFE7FFE705989D
:1039A000FDF7D2FB03E00598FDF7C4FBFFE7FFE757
:1039B00002988006002805D5FFE7019840F0200016
:1039C0000190FFE701980399C1F8400406B080BD5B
:1039D00080B58AB009900998006808900898079007
:1039E00009980068006A0490049800F00F000190A4
:1039F0000498C0F3434006900498C0F30A10059061
:103A00000698023801460091052800F28A80009944
:103A1000DFE801F0038687858786059800287DD03A
:103A2000FFE709980199C1EB011100EB8100C06A21
:103A3000002873D0FFE709980199C1EB011100EB51
:103A40008100416B806B059A104488425BD8FFE788
:103A500009990868019AC2EB021201EB8201C96A56
:103A6000BDF8142004F078FA059A09980199C1EB81
:103A7000011100EB8101C86A1044C862059A0998D7
:103A80000199C1EB011100EB8101886B104488633F
:103A90000798019900EB4110D0F81005C0F3C94018
:103AA000039009980199C1EB011100EB8100008D91
:103AB0000599884226D1FFE7039818B3FFE70798D6
:103AC000019900EB4110D0F800050290029820F017
:103AD00080400290029840F00040029002980799BE
:103AE000019A01EB4211C1F8000509980199C1EB57
:103AF000011100EB810191F83C0080F0010081F898
:103B00003C00FFE709E009980199C1EB011100EBC6
:103B10008101042081F84C00FFE7FFE702E001E0AB
:103B2000FFE7FFE70AB080BDFFE7FEE780B58CB096
:103B300000200B900A90099008900790FFE7002062
:103B4000069043F63000C4F20200016841F08001A3
:103B50000160006800F0800006900698FFE7FFE72C
:103B60000020059043F63000C4F20200016841F0E5
:103B700001010160006800F0010005900598FFE771
:103B8000FFE70020049043F63000C4F20200016811
:103B900041F002010160006800F002000490049806
:103BA000FFE7FFE70020039043F63000C4F2020075
:103BB000016841F004010160006800F00400039016
:103BC0000398FFE740F60000C4F2020002904FF4B1
:103BD0004071009100220192FCF7CEFD009A0199FC
:103BE000029807920122089209910A9107A9FCF70D
:103BF000FDFB0CB080BD000080B58AB000210091B3
:103C00000991089107910691059104910391029100
:103C1000019140F60830C2F2000040F20042C4F2C6
:103C200000020260416081604FF6FF72C260016174
:103C30008161FEF78BFA18B1FFE7FCF7B1FBFFE7F4
:103C400000200890099040F60830C2F2000008A950
:103C5000FEF7D6F818B1FFE7FCF7A2FBFFE76020FC
:103C60000190002202920392059240F60830C2F2BF
:103C7000000001A9FEF7C8F918B1FFE7FCF790FBB7
:103C8000FFE740F60830C2F2000001A90422FEF767
:103C9000BBF918B1FFE7FCF783FBFFE740F60830FC
:103CA000C2F2000001A90822FEF7AEF918B1FFE741
:103CB000FCF776FBFFE740F60830C2F2000001A9EE
:103CC0000C22FEF7A1F918B1FFE7FCF769FBFFE74B
:103CD00040F60830C2F20000FEF712F90AB080BDCB
:103CE00080B58AB000210091099108910791069151
:103CF0000591049103910291019140F65030C2F276
:103D0000000040F60002C4F20002026041608160DF
:103D10004FF6FF72C26001618161FEF717FA18B1B8
:103D2000FFE7FCF73DFBFFE700200890099040F615
:103D30005030C2F2000008A9FEF762F818B1FFE7A0
:103D4000FCF72EFBFFE76020019000220292039215
:103D5000059240F65030C2F2000001A9FEF754F976
:103D600018B1FFE7FCF71CFBFFE740F65030C2F24A
:103D7000000001A90422FEF747F918B1FFE7FCF79C
:103D80000FFBFFE740F65030C2F2000001A9082205
:103D9000FEF73AF918B1FFE7FCF702FBFFE740F640
:103DA0005030C2F2000001A90C22FEF72DF918B123
:103DB000FFE7FCF7F5FAFFE740F65030C2F20000EB
:103DC000FEF79EF80AB080BD80B582B040F698300C
:103DD000C2F20000019041F20001C4F20101016051
:103DE0004FF4E131416000218160C16001610C222A
:103DF00042618161C161FEF733FA18B1FFE7FCF758
:103E0000CFFAFFE702B080BD80B582B040F6E03067
:103E1000C2F20000019044F20041C4F200010160CE
:103E20004FF4E131416000218160C16001610C22E9
:103E300042618161C161FEF713FA18B1FFE7FCF737
:103E4000AFFAFFE702B080BD80B582B040F62840EF
:103E5000C2F20000019041F20041C4F20101016090
:103E60004FF4E131416000218160C16001610C22A9
:103E700042618161C161FEF7F3F918B1FFE7FCF718
:103E80008FFAFFE702B080BD80B540F25000C2F269
:103E9000000047F29111C0F60001012201F084FFF9
:103EA00018B1FFE7FCF77CFAFFE740F25000C2F2DE
:103EB000000040F20801C2F2000103F08DF818B1D1
:103EC000FFE7FCF76DFAFFE740F25000C2F2000096
:103ED00003F038F918B1FFE7FCF762FAFFE780BD9D
:103EE00080B540F25000C2F2000002F07FFE80BDBB
:103EF000FFE7FEE7FFE7FEE788B00790069105922F
:103F0000079800F0070004900498C0F10700052806
:103F100003D3FFE70420019004E00498C0F10700F8
:103F20000190FFE70198039004980430062803D815
:103F3000FFE70020009003E0049803380090FFE7BB
:103F40000098029006980399012202FA01F10139C2
:103F50000840029B984005999A40013A1140084355
:103F600008B0704780B540F22870C2F20000FCF73C
:103F700013FF80BD704700007047000080B582B01D
:103F8000009000980138B0F1807F03D3FFE7012053
:103F9000019019E0009801384EF21401CEF20001B0
:103FA00008604FF0FF300F2104F0BAF94EF218010B
:103FB000CEF20001002008604EF21002CEF20002A4
:103FC000072111600190FFE7019802B080BD000059
:103FD00080B5FDF729F980BD80B594B008A83021DF
:103FE000FCF72CF9002007900690059004900390B0
:103FF000FFE70020029043F64000C4F2020001688F
:1040000041F080510160006800F0805002900298F9
:10401000FFE7FFE70020019047F20000C4F2000034
:104020000168022262F38F310160006800F44040B1
:1040300001900198FFE7012008904FF4803009902B
:1040400002200E904FF480000F90042010909020DA
:10405000119006201290139008A8FDF769FB18B183
:10406000FFE7FCF79DF9FFE70F2003900220049083
:10407000002005904FF480510691079003A801217C
:10408000FDF786F918B1FFE7FCF78AF9FFE714B0EE
:1040900080BD00004EF68851CEF20001086840F461
:1040A000700008607047000083B002900191029890
:1040B0000068009002980021C4F2010188421DD0DE
:1040C000FFE70298B0F1804F18D0FFE7029840F266
:1040D0000041C4F20001884210D0FFE7029840F688
:1040E0000001C4F20001884208D0FFE7029840F6C0
:1040F0000041C4F2000188420AD1FFE7009820F095
:104100007000009001984168009808430090FFE714
:1041100002980021C4F20101884235D0FFE70298DD
:10412000B0F1804F30D0FFE7029840F20041C4F276
:104130000001884228D0FFE7029840F60001C4F24F
:104140000001884220D0FFE7029840F60041C4F207
:104150000001884218D0FFE7029844F20001C4F23F
:104160000101884210D0FFE7029844F20041C4F2F6
:104170000101884208D0FFE7029844F60001C4F22A
:10418000010188420AD1FFE7009820F440700090B6
:104190000198C168009808430090FFE7009820F05C
:1041A000800001994969084300900198806802994C
:1041B000C862019800680299886202980021C4F2DE
:1041C0000101884205D1FFE701980069029908635F
:1041D000FFE70299086840F0040008600299012096
:1041E000486100980299086003B0704785B0049058
:1041F00003910498006A01900499086A20F0010074
:1042000008620498406800900498806902900298BF
:1042100020F070000290029820F0030002900398B2
:104220000168029808430290019820F00200019072
:104230000398816801980843019004980021C4F212
:10424000010188420ED1FFE7019820F0080001909B
:104250000398C168019808430190019820F0040078
:104260000190FFE704980021C4F20101884213D1B4
:10427000FFE7009820F480700090009820F4007010
:104280000090039841690098084300900398816961
:10429000009808430090FFE700980499486002984E
:1042A00004998861039840680499486301980499C7
:1042B000086205B07047000085B00490039104982F
:1042C000006A01900499086A20F0100008620498BE
:1042D00040680090049880690290029820F4E040C1
:1042E0000290029820F440700290039801680298AE
:1042F00040EA01200290019820F0200001900398EC
:104300008168019840EA0110019004980021C4F2EC
:10431000010188420FD1FFE7019820F08000019051
:104320000398C168019840EA01100190019820F0BB
:1043300040000190FFE704980021C4F20101884287
:1043400015D1FFE7009820F480600090009820F4D9
:104350000060009003984169009840EA8100009055
:1043600003988169009840EA81000090FFE7009877
:1043700004994860029804998861039840680499F8
:10438000886301980499086205B0704785B004906D
:1043900003910498006A01900499086A20F48070DF
:1043A00008620498406800900498C06902900298DE
:1043B00020F070000290029820F003000290039811
:1043C0000168029808430290019820F4007001905F
:1043D00003988168019840EA012001900498002127
:1043E000C4F2010188420FD1FFE7019820F4006078
:1043F00001900398C168019840EA0120019001985A
:1044000020F480600190FFE704980021C4F20101CC
:10441000884215D1FFE7009820F480500090009862
:1044200020F40050009003984169009840EA011080
:10443000009003988169009840EA01100090FFE71E
:1044400000980499486002980499C86103984068EC
:104450000499C86301980499086205B07047000088
:1044600085B0049003910498006A01900499086A49
:1044700020F4805008620498406800900498C06955
:104480000290029820F4E0400290029820F44070DC
:10449000029003980168029840EA01200290019876
:1044A00020F40050019003988168019840EA01309F
:1044B000019004980021C4F2010188420BD1FFE76A
:1044C000009820F48040009003984169009840EAE9
:1044D00081100090FFE700980499486002980499C1
:1044E000C8610398406804990864019804990862B7
:1044F00005B0704784B0049902900193009240F295
:104500002C00C2F20000007870B1FFE70098019A19
:1045100002994A60086040F22C01C2F200010020BA
:1045200008708DF80F001EE0029900200872009BB1
:104530000199029AD2F800C05268B3EB0C03914182
:10454000049AD21A884109D2FFE70098019A029989
:104550004A600860029901200872FFE70298007A19
:104560008DF80F00FFE79DF80F0004B070470000C2
:1045700080B586B0059005980068006920F4405029
:10458000059A1168D26810430861059988680B691B
:104590004A69C969184310430843049005980068A4
:1045A000C06849F20C618843049908430599096879
:1045B000C86005980068406920F44070059A116849
:1045C0009269104348610598006841F20001C4F205
:1045D0000101884209D0FFE70598006841F20041D7
:1045E000C4F20101884204D1FFE7FDF71BF80390F4
:1045F00003E0FDF705F80390FFE70598C069B0F503
:10460000004F29D1FFE703981921A0FB0101059A6A
:104610001368029353685A00DB0FFBF7D7FD02992A
:10462000864648F21F53C5F2EB13AEFB0320420946
:1046300010014FF0640C02FB1CEC322202EBCC02A6
:10464000A2FB0332F82303EA521300EB4300C2F348
:1046500042121044886026E003981921A0FB010152
:10466000059A1368019353689A009B0FFBF7AEFD00
:104670000199844648F21F52C5F2EB12ACFB02309E
:104680004309642003FB10CC322000EB0C10A0FB8C
:104690000202F02000EA521000EB0310C2F34312B2
:1046A00010448860FFE706B080BD000080B582B08E
:1046B00001908DF80310019800F0B4F9ADF80000F6
:1046C000BDF800004FF6FF7188420ED0FFE79DF85D
:1046D000030000F500400199BDF8002002F00F0230
:1046E00001EB8201C1F88406FFE79DF8000002B0EB
:1046F00080BD000080B582B001908DF80310019854
:104700009DF8031001F0B0FB002002B080BD000056
:1047100080B582B001908DF803100198807801284F
:1047200010D1FFE701990220087401990120487413
:104730000199002048829DF80310019A9182019905
:10474000C882FFE701980022114600F023F802B06A
:1047500080BD000080B588B007900691ADF81620A6
:104760008DF8153007989DF81510069ABDF816E0DB
:10477000EC4600230493CCF80C30CCF808E0CCF8DD
:1047800004200122CCF8002001F024FD049808B098
:1047900080BD000080B584B003900291ADF8062082
:1047A00001208DF8050003988078014600910128CA
:1047B00004D0FFE70098022810D030E00298039957
:1047C0008860BDF806000399888103990120087666
:1047D000039A022191708DF8050021E0039800F002
:1047E0003FFF8DF805009DF8050028B1FFE79DF813
:1047F0000500032807D1FFE703990120887003997A
:10480000002008760AE09DF80500022804D1FFE7A1
:1048100003990120887000E0FFE7FFE700E0FFE771
:104820009DF8050004B080BD80B588B084460A9824
:10483000CDF81CC00691ADF816208DF815308DF816
:104840001400079890F81D0620B1FFE700208DF8AE
:104850001400FFE707989DF81510069ABDF816C0DA
:104860009DF814E06B46C3F80CE0C3F808C05A602A
:1048700001221A60002304931A4601F0ABFC04984D
:1048800008B080BD80B588B0079006918DF81720DC
:1048900007989DF81710DDF818C06A4600230493A6
:1048A000D3604FF0080EC2F808E0C2F804C01360ED
:1048B0001A4601F08FFC049808B080BD80B582B024
:1048C00001900198FBF770FD02B080BD86B00490A6
:1048D0008DF80F108DF80E208DF80D3000208DF81A
:1048E00003000290049800F5C7600190FFE79DF86F
:1048F0000300012837D8FFE7019A9DF803001A2129
:1049000010FB01200A300290029840799DF80F10A8
:10491000884205D0FFE79DF80F00FF281DD1FFE773
:10492000029880799DF80E10884205D0FFE79DF827
:104930000E00FF2811D1FFE70298C0799DF80D10F5
:10494000884205D0FFE79DF80D00FF2805D1FFE75D
:104950009DF803008DF8170009E09DF80300013071
:104960008DF80300C3E7FF208DF81700FFE79DF8DF
:10497000170006B07047000082B001908DF8031058
:104980009DF803000F280CD8FFE701989DF803104D
:1049900000EB8101D1F884066FF3DF30C1F88406A3
:1049A000FFE7002002B0704780B584B084460698C7
:1049B000CDF80CC08DF80B10ADF808200193ADF8C0
:1049C000020003988078012823D1FFE79DF80B00AF
:1049D00040F0800003990874039906204874BDF8DC
:1049E0000800039948829DF809104FF44070B0EB1D
:1049F000012F05D1FFE7039940F20940888203E0C7
:104A0000039900208882FFE7BDF802000399C8825D
:104A1000FFE703980199BDF80220FFF7BBFE04B041
:104A200080BD000083B0019000208DF803008DF858
:104A30000300FFE79DF803000F2817D8FFE7019850
:104A40009DF8031000EB810090F885060006002811
:104A500005D4FFE79DF80300ADF80A000BE0FFE77F
:104A60009DF8030001308DF80300E3E74FF6FF7077
:104A7000ADF80A00FFE7BDF80A0003B07047000078
:104A800083B002900191029802780199088810443D
:104A900008800298017808440090009803B070479D
:104AA00080B586B00490ADF80E1004981C300290CA
:104AB000BDF80E00B0F5007F06D9FFE7FFE7FFE77E
:104AC00003208DF817001EE00498029BBDF80E101D
:104AD0006A46116000214FF40072FFF765FF8DF800
:104AE0000D009DF80D0048B9FFE704980299BDF844
:104AF0000E2001F02FFD8DF80D00FFE79DF80D0051
:104B00008DF81700FFE79DF8170006B080BD000084
:104B100080B584B00290ADF80610BDF80600B0F57F
:104B2000806F06D9FFE7FFE7FFE703208DF80F004E
:104B300020E0029800F50773BDF806106A46116080
:104B400000214FF48072FFF72FFF8DF805009DF8CC
:104B5000050050B9FFE7029800F50771BDF806207F
:104B600001F02AFE8DF80500FFE79DF805008DF89D
:104B70000F00FFE79DF80F0004B080BD80B586B040
:104B800004908DF80F100292ADF80630BDF80600C3
:104B9000B0F5806F03D8FFE7029830B9FFE7FFE771
:104BA000FFE703208DF8170022E004989DF80F100E
:104BB00001F5407200F50773BDF80610EC46CCF81D
:104BC00000100021FFF7F0FE8DF805009DF80500AC
:104BD00048B9FFE7049800F507700299BDF8062070
:104BE00001F0C2FFFFE79DF805008DF81700FFE711
:104BF0009DF8170006B080BD82B08DF80700002038
:104C00008DF806009DF8070001460091032814D88E
:104C10000099DFE801F002060A0E00208DF8060078
:104C20000FE002208DF806000BE001208DF8060051
:104C300007E002208DF8060003E002208DF8060050
:104C4000FFE79DF8060002B07047000080B584B011
:104C5000039001208DF80B008DF80A000398D0F81E
:104C60007C06C069019001984079014600910528B1
:104C70006BD80099DFE801F003680D032A4401981E
:104C8000263003991C3100F071FB01990220487114
:104C90005CE003980199C98D00F0D6F88DF80A0000
:104CA0009DF80A0020B9FFE70199042048710CE043
:104CB0009DF80A00032806D1FFE7FFE7FFE702207F
:104CC0008DF80B0000E0FFE7FFE73FE003980022CC
:104CD000114600F083FC8DF80A009DF80A0020B907
:104CE000FFE701990520487109E09DF80A000328B3
:104CF00004D1FFE7019905204871FFE7FFE725E0B0
:104D00000398002100F08AFC8DF80A009DF80A0043
:104D100060B9FFE70199012048710398D0F8D426C3
:104D20000221904700208DF80B000CE09DF80A004E
:104D3000032806D1FFE7FFE7FFE702208DF80B000D
:104D400000E0FFE7FFE701E0FFE7FFE79DF80B006A
:104D500004B080BD81B0009001B0704783B0029074
:104D60000191ADF802200299002088800299C88044
:104D700002998872BDF8020002990881019802998F
:104D8000086003B07047000085B003900291ADF851
:104D90000620029800900398807A002847D1FFE708
:104DA0000399012088720020ADF80400FFE7BDF8E8
:104DB0000400BDF80610884238DAFFE703998888B6
:104DC0000130C98888420BD0FFE7039988880130F9
:104DD000098988420CD1FFE70398C08840B9FFE7F2
:104DE000039900208872BDF80400ADF8120026E097
:104DF0000098411C00910078039A116892888854A9
:104E000003998888013088800399888809898842B5
:104E100004D1FFE7039900208880FFE7FFE7FFE761
:104E2000BDF804000130ADF80400C0E7FFE70399C6
:104E300000208872BDF80600ADF81200FFE7BDF84B
:104E4000120005B07047000080B584B00290ADF844
:104E50000610BDF80600B0F5806F06D9FFE7FFE742
:104E6000FFE703208DF80F0012E0029800F50773AA
:104E7000BDF806106A46116001214FF40852FFF791
:104E800093FD8DF805009DF805008DF80F00FFE7F4
:104E90009DF80F0004B080BD80B584B084460698AC
:104EA000CDF80CC08DF80B108DF80A2001938DF809
:104EB00003000399A12008740399012048749DF808
:104EC0000B109DF80A0040EA0120039948820399DB
:104ED000002088829DF803000399C88203980199F5
:104EE0009DF80320FFF756FC04B080BD80B582B06A
:104EF00001900198D0F87C06C06900900098407835
:104F000070B1FFE7019800994978FFF7F3FB01982A
:104F100000994978FFF730FD009900204870FFE7BD
:104F20000098007870B1FFE7019800990978FFF7C1
:104F3000E1FB019800990978FFF71EFD0099002018
:104F40000870FFE70198D0F87C06C06960B1FFE700
:104F50000198D0F87C06C06903F076FA0198D0F881
:104F60007C160020C861FFE7002002B080BD000071
:104F700010B58CB00A9000208DF81C000A98D0F86B
:104F80007C160979FF231A46FFF7A0FC8DF81B0059
:104F90009DF81B00FF2805D0FFE79DF81B000228A5
:104FA00006D3FFE7FFE7FFE702208DF82F004AE175
:104FB0000A989DF81B1002F03DF88DF827009DF827
:104FC000270020B1FFE702208DF82F003BE13420BD
:104FD00003F062FA0A99D1F87C16C8610A98D0F8F1
:104FE0007C06C0690890089830B9FFE7FFE7FFE743
:104FF00002208DF82F0026E108983421FBF71EF9D6
:105000000899072088700A9A9DF81B001A2110FB46
:10501000012090F84906012809D1FFE7FFE7FFE7E3
:10502000089945F25120C0F60000086318E00A9A7A
:105030009DF81B001A2110FB012090F84906022858
:1050400009D1FFE7FFE7FFE7089945F2E520C0F641
:105050000000086303E0089900200863FFE7FFE70A
:10506000089900208870089948710A9A9DF81B00D9
:105070001A2110FB012090F84E06089A90760A9AA1
:105080009DF81B0010FB0120B0F85006089A108311
:105090000A9A9DF81B0010FB012090F8520608990F
:1050A00088830898808B092804D8FFE708990A208C
:1050B0008883FFE70A9A9DF81B001A2110FB012044
:1050C00090F8460602280AD8FFE70A9A9DF81B00C6
:1050D0001A2110FB012090F84606059002E00220FC
:1050E0000590FFE705988DF81D0000208DF81C0045
:1050F000FFE79DF81C009DF81D10884280F2968005
:10510000FFE70A9A9DF81B001A2110FB01209DF869
:105110001C1000EBC10090F84E06000600283FD599
:10512000FFE70A9A9DF81B001A21049110FB012049
:105130009DF81C1000EBC10090F84E06089908710C
:105140000A9808990979FFF7B1FA0499089A5070FA
:105150000A9A9DF81B0010FB01209DF81C1000EB23
:10516000C100B0F85006ADF81E000A98089A5178B0
:10517000127990F81C3690F81DC6BDF81E40EE4618
:10518000CEF808400324CEF80440CEF800C001F069
:10519000B3F90A9808994978002200F0B7FF3EE079
:1051A0000A9A9DF81B001A21039110FB01209DF81B
:1051B0001C1000EBC10090F84E060899C8700A98C0
:1051C0000899C978FFF772FA0399089A10700A9A39
:1051D0009DF81B0010FB01209DF81C1000EBC10086
:1051E000B0F85006ADF81E000A98089A1178D278E7
:1051F00090F81C3690F81DC6BDF81E40EE46CEF85D
:1052000008400324CEF80440CEF800C001F074F941
:105210000A9808990978002200F078FFFFE7FFE775
:105220009DF81C0001308DF81C0062E70898006BA7
:1052300028B1FFE70898016B0A988847FFE700202C
:105240008DF82F00FFE79DF82F000CB010BD000077
:1052500080B586B005900598D0F87C06C0690390AB
:1052600040F67041C2F200010191002002904870A6
:105270008870C870087148718871C871087204908C
:10528000FFE70498072812D8FFE7049A40F67F4109
:10529000C2F2000100208854049A40F68741C2F20D
:1052A00000018854FFE7049801300490E9E703986F
:1052B000008B092804D3FFE7039908200883FFE740
:1052C000039940F68740C2F2000048610398083015
:1052D000059901F507715022FFF740FD002006B047
:1052E00080BD000080B584B003900398D0F87C06A0
:1052F000C069019040F68F41C2F2000100200870A1
:1053000048708870C87008710290FFE702980728FB
:1053100012D8FFE7029A40F69441C2F20001002041
:105320008854029A40F69C41C2F200018854FFE77B
:10533000029801300290E9E70198008B092804D314
:10534000FFE7019908200883FFE7019940F69C4098
:10535000C2F20000486101980830039901F5077115
:105360005022FFF7FBFC002004B080BD80B584B064
:10537000039002910298019002998878C97840EAD6
:105380000120ADF80200BDF802000A283AD3FFE779
:105390000920ADF80000FFE7BDF80000BDF80210DD
:1053A00088422EDAFFE701986946FFF769FB019012
:1053B00001984078212823D1FFE7019800780399CC
:1053C0000870019840780399487001998878C978E5
:1053D00040EA0120039948800198007903990871F7
:1053E00001984079039948710198807903998871EF
:1053F0000199C879097A40EA01200399088100E0FF
:10540000CAE7FFE704B080BD80B586B005900020F4
:105410008DF813000598D0F87C06C06903900398B6
:10542000807801460191062800F2B4800199DFE8F6
:1054300001F0041CB1B15D5271000398016B059835
:1054400088478DF813009DF8130020B9FFE70399F2
:105450000120887008E0FFE7FFE7039907208870C4
:1054600002208DF81300FFE795E0059803994B693A
:10547000097E6A46116001210022FFF70DFD8DF8BB
:1054800013009DF8130020B9FFE7039905208870E9
:1054900020E09DF81300012807D1FFE703990120C0
:1054A000887000208DF8130013E09DF81300032886
:1054B00007D1FFE703990520887000208DF81300BD
:1054C00006E003990720887002208DF81300FFE79B
:1054D000FFE7FFE75FE00598D0F8C406C00720B1FA
:1054E000FFE7039904208870FFE754E00598039BC9
:1054F00059691A7E5B7800F097FC03990620887042
:105500000598D0F8C406039908620399002081F831
:10551000240040E005980399497800F02DFD01280A
:1055200022D1FFE705980399497800F0EBFC02903F
:10553000039890F82400B0B9FFE7029898B1FFE70C
:105540000398806878B1FFE7039A02F10800516977
:10555000128BFFF719FC0399012081F824000598AC
:10556000FFF7F8FBFFE714E005980399497800F08E
:1055700003FD05280CD1FFE705980399897EFFF705
:10558000C7F820B9FFE7039904208870FFE7FFE719
:10559000FFE700E0FFE79DF8130006B080BD0000C4
:1055A00082B001900198D0F87C06C0690090009804
:1055B000807806280FD1FFE70198D0F8C40600993B
:1055C0000A6A801A898B884204D3FFE70099042075
:1055D0008870FFE7FFE7002002B0704780B582B017
:1055E00001908DF803108DF8022001992120087494
:1055F00001990A2048749DF803109DF8020040EAC2
:105600000120019948820198002282820198C28279
:1056100001981146FFF7BEF802B080BD80B582B098
:1056200001908DF8031001992120087401990B2035
:1056300048749DF8030020B1FFE7019900204882DB
:1056400003E0019901204882FFE70198002282824D
:105650000198C28201981146FFF79CF802B080BD04
:1056600080B584B0039001208DF80A0000208DF8E9
:1056700009000398007E0138014601910A2800F2D2
:105680006C810199DFE811F00B00150057006600EE
:105690008A009E00D200E10008011A01410103982E
:1056A00000F110014279FFF7EDF803990220087626
:1056B00054E10398417900F05FFC8DF809009DF8F2
:1056C0000900012827D1FFE70398007C00F0800043
:1056D0008DF80B000398C08A70B1FFE79DF80B00AE
:1056E000802804D1FFE703990320087603E003999B
:1056F00005200876FFE70DE09DF80B00802804D117
:10570000FFE703990920087603E00399072008764C
:10571000FFE7FFE70EE09DF80900042805D0FFE74A
:105720009DF80900022804D1FFE703990B200876B1
:10573000FFE7FFE712E10398D0F8C4060399C88198
:105740000398816882890379FFF704F8039904209C
:10575000087603E10398017900F00EFC8DF809004A
:105760009DF80900012804D1FFE703990920087674
:1057700013E09DF80900052804D1FFE703208DF808
:105780000A0009E09DF80900042804D1FFE7039905
:105790000B200876FFE7FFE7FFE7DFE0039881686B
:1057A00082894379EE464FF0010CCEF800C0FFF736
:1057B0003BF80398D0F8C4060399C88103990620E2
:1057C0000876CBE00398417900F0D6FB8DF809000C
:1057D0009DF80900012804D1FFE703990720087606
:1057E00023E09DF80900052807D1FFE703990C2065
:1057F000087603208DF80A0016E09DF809000228BB
:1058000004D1FFE70399052008760CE09DF8090014
:10581000042807D1FFE703990B20087602208DF8B2
:105820000A00FFE7FFE7FFE7FFE797E00398037948
:1058300000221146FEF78EFF0398D0F8C4060399A4
:10584000C88103990820087688E00398017900F060
:1058500093FB8DF809009DF80900012807D1FFE7A7
:1058600003990D20087600208DF80A0013E09DF8BA
:105870000900042804D1FFE703990B20087609E00A
:105880009DF80900052804D1FFE703208DF80A00E0
:10589000FFE7FFE7FFE761E0039843796A460121EC
:1058A000116000221146FEF7BFFF0398D0F8C4062E
:1058B0000399C88103990A2008764FE0039841793B
:1058C00000F05AFB8DF809009DF80900012807D166
:1058D000FFE700208DF80A0003990D20087613E0F9
:1058E0009DF80900022804D1FFE7039909200876F2
:1058F00009E09DF80900042804D1FFE703990B2073
:105900000876FFE7FFE7FFE728E0039A507E411C97
:10591000C8B25176022806D8FFE70399012008761D
:105920000399887018E00398D0F8D4260621904790
:10593000039900204876FFE7FFE703984179FFF7D6
:105940001BF803980179FFF717F8039900200870F6
:1059500002208DF80A00FFE700E0FFE79DF80A004B
:1059600004B080BD10B588B0079001208DF81B00F1
:105970008DF81A000798407801460591072800F233
:10598000F8810599DFE811F008006A00A700F80027
:1059900031016B019901C70107980821FFF7B8F899
:1059A0008DF81A009DF81A0078BBFFE7079991F867
:1059B0002D068871079901204870079890F81C36C9
:1059C00090F81D26017990F806E0EC46CCF808E046
:1059D0004FF0000ECDF810E0CCF804E0CCF8002039
:1059E000802200F089FD049A079890F81C3690F800
:1059F0001DC641798479EE46CEF80840CEF80420E1
:105A0000CEF800C000F078FD27E09DF81A000328CA
:105A100021D1FFE7FFE7FFE7079991F81E06013064
:105A200081F81E06079890F81E06042806D3FFE7A3
:105A3000FFE7FFE707990D2008700BE00798417911
:105A4000FEF79AFF07980179FEF796FF0799002065
:105A50000870FFE700E0FFE7FFE78BE107981221FE
:105A6000FFF756F88DF81A009DF81A0040B9FFE7C5
:105A7000FFE7FFE7FFE7FFE707990220487029E00B
:105A80009DF81A00032823D1FFE7FFE7FFE70799F6
:105A900091F81E06013081F81E06079890F81E0640
:105AA000042806D3FFE7FFE7FFE707990D200870FA
:105AB0000DE007984179FEF75FFF07980179FEF73F
:105AC0005BFF07990020487007990870FFE700E026
:105AD000FFE7FFE74EE10798012101F0D3FA8DF8C7
