:020000040800F2
:1000000090090020A9010008A11C0008211900087E
:100010009D1C0008B50200086924000800000000CB
:10002000000000000000000000000000191D000892
:10003000B902000800000000151D0008711D00082D
:10004000C3010008C3010008C3010008C301000880
:10005000C3010008C3010008C3010008C301000870
:10006000C3010008C3010008C3010008C301000860
:10007000C3010008C3010008C3010008C301000850
:10008000C3010008C3010008C3010008000000000C
:10009000000000000000000000000000C301000894
:1000A000C3010008C3010008C3010008C301000820
:1000B000C3010008C3010008C3010008C301000810
:1000C000C3010008C3010008C3010008C301000800
:1000D000C3010008C3010008C301000800000000BC
:1000E000C3010008C3010008C301000800000000AC
:1000F000000000000000000000000000C301000834
:1001000000000000C3010008C3010008C30100088B
:1001100000000000000000000000000000000000DF
:10012000C3010008C3010008C3010008C30100089F
:10013000C3010008000000000000000000000000F3
:10014000000000000000000000000000C3010008E3
:10015000C3010008C3010008C3010008C30100086F
:10016000C3010008C30100080000000000000000F7
:10017000000000000000000000000000000000007F
:1001800000000000C30100080000000000000000A3
:10019000C3010008DFF80CD000F07AF800480047EF
:1001A000FD240008900900200648804706480047C3
:1001B000FEE7FEE7FEE7FEE7FEE7FEE7FEE7FEE717
:1001C000FEE7FEE7291E0008950100082DE9F05F13
:1001D0000546002092469B468846064681464024B6
:1001E0001BE0284641464746224600F041F8534668
:1001F0005A46C01A914110D311461846224600F0C3
:1002000028F82D1A67EB01084F46224601200021ED
:1002100000F01FF817EB00094E41201EA4F1010465
:10022000DFDC484631462A464346BDE8F09FD2B25D
:1002300001E000F8012B491EFBD270470022F6E7CF
:1002400010B513460A4604461946FFF7F0FF20464C
:1002500010BD202A04DB203A00FA02F1002070478A
:100260009140C2F1200320FA03F3194390407047F4
:10027000202A04DB203A21FA02F00021704721FAFB
:1002800002F3D040C2F12002914008431946704762
:10029000064C074D06E0E06840F0010394E80700D3
:1002A00098471034AC42F6D3FFF778FF9825000842
:1002B000B8250008FFE7FEE77047000072B6FFE7C9
:1002C000FEE700008BB00A9009910020079006908D
:1002D00005900890FFE708980F2800F2A881FFE733
:1002E0000898012101FA00F0079009980068079921
:1002F0000840069006980799884240F09381FFE7EE
:100300000998406800F00300012807D0FFE709982A
:10031000406800F0030002282FD1FFE70A988068A8
:10032000059008984000032101FA00F0059921EAA0
:10033000000005900998C06808994900884005990F
:100340000843059005980A9988600A9840680590C6
:100350000898012101FA00F0059921EA00000590B2
:1003600009984068C0F3001008998840059908432F
:10037000059005980A994860FFE70998406800F0E1
:100380000300032818D0FFE70A98C0680590089872
:100390004000032101FA00F0059921EA00000590D0
:1003A0000998806808994900884005990843059094
:1003B00005980A99C860FFE70998406800F00300B3
:1003C000022826D1FFE70A9808996FF0030202EA93
:1003D00051010844006A0590089800F00700800069
:1003E0000F2101FA00F0059921EA00000590099813
:1003F0000069089901F007018900884005990843C0
:10040000059005980A99089B02EA53021144086274
:10041000FFE70A980068059008984000032101FA58
:1004200000F0059921EA000005900998406800F065
:1004300003000899490088400599084305900598EC
:100440000A990860099880798007002800F0E980FF
:10045000FFE7FFE70020049043F64400C4F20200E7
:10046000016841F480410160006800F4804004901C
:100470000498FFE7089820F0030043F60801C4F24F
:10048000010140580590089800F0030080000F21FA
:1004900001FA00F0059921EA000005900A98002170
:1004A000C4F20201884203D1FFE70020039034E048
:1004B0000A9840F20041C4F20201884203D1FFE7EA
:1004C0000120029026E00A9840F60001C4F20201E1
:1004D000884203D1FFE70220019018E00A9840F615
:1004E0000041C4F20201884203D1FFE703200090DB
:1004F0000AE00A9841F20001C4F202010722884290
:1005000008BF04220092FFE700980190FFE70198DE
:100510000290FFE702980390FFE70398C0B20899A2
:1005200001F003018900884005990843059005986A
:10053000089921F0030143F60802C4F20102885031
:1005400043F60840C4F2010000680590069805993A
:1005500021EA0000059009988079C006002805D599
:10056000FFE70698059908430590FFE7059843F6CD
:100570000841C4F20101086043F60C40C4F20100D6
:10058000006805900698059921EA000005900998F1
:1005900080798006002805D5FFE70698059908436D
:1005A0000590FFE7059843F60C41C4F2010108608D
:1005B00043F60440C4F201000068059006980599CE
:1005C00021EA00000590099880798007002805D568
:1005D000FFE70698059908430590FFE7059843F65D
:1005E0000441C4F20101086043F60040C4F2010076
:1005F000006805900698059921EA00000590099881
:100600008079C007002805D0FFE7069805990843C0
:100610000590FFE7059843F60041C4F20101086028
:10062000FFE7FFE7FFE708980130089053E60BB0BB
:100630007047000083B00A460290ADF80610029899
:10064000406900900098BDF8061000EA010321EA15
:10065000000040EA03400299886103B0704700003F
:1006600082B013468C460190ADF802108DF801203F
:100670009DF80100002805D0FFE7BDF802000199B0
:10068000886105E0BDF80200000401998861FFE778
:1006900002B0704740F28810C2F200000068704754
:1006A00040F20500C2F20000007840F28811C2F268
:1006B00000010A68104408607047000080B582B0ED
:1006C00043F60040C4F20200016841F40071016089
:1006D000016841F480610160016841F4807101604A
:1006E000032000F089F80F2000F006F8019000F0D8
:1006F0003DF8002002B080BD80B582B0009040F28D
:100700000000C2F20000006840F20501C2F20001E0
:1007100009784FF47A72B2FBF1F1B0FBF1F000F01E
:10072000A9FD002804D0FFE701208DF8070018E09C
:1007300000980F280DD8FFE700994FF0FF300022F6
:1007400000F03AF8009840F20801C2F20001086097
:1007500003E001208DF8070003E000208DF807007A
:10076000FFE79DF8070002B080BD000082B0FFE700
:100770000020019043F64400C4F20200016841F4F5
:1007800080410160006800F4804001900198FFE71B
:10079000FFE70020009043F64000C4F20200016829
:1007A00041F080510160006800F080500090009896
:1007B000FFE702B07047000080B588B003468DF8AF
:1007C0001F000691059200200490039301F04EFE55
:1007D00004909DF91F000499069A059B0290084613
:1007E00011461A4601F05EFA0299019008460199F5
:1007F00001F044FE08B080BD80B582B00190019840
:1008000001F05EFE02B080BD80B584B0029001911F
:100810000298002804D1FFE701208DF80F0021E1A4
:10082000019843F60041C4F20201096801F0070192
:10083000884212D9FFE7019843F60041C4F2020151
:100840000870086800F007000199884204D0FFE7AB
:1008500001208DF80F0005E1FFE70298007880077E
:1008600000282AD5FFE7029800784007002809D51C
:10087000FFE743F60800C4F20200016841F4E051CA
:100880000160FFE7029800780007002809D5FFE71C
:1008900043F60800C4F20200016841F460410160BF
:1008A000FFE743F60800C4F20200016821F0F001FE
:1008B000029A926811430160FFE702980078C0072E
:1008C00000286ED0FFE702984068012811D1FFE7A9
:1008D00043F60000C4F20200006800F4003000217A
:1008E000B1EB504F04D1FFE701208DF80F00B9E0C4
:1008F0002CE002984068022805D0FFE70298406883
:10090000032811D1FFE743F60000C4F2020000689B
:1009100000F000700021B1EB506F04D1FFE701201F
:100920008DF80F009EE010E043F60000C4F20200D4
:10093000006800F002000021B1EB500F04D1FFE786
:1009400001208DF80F008DE0FFE7FFE743F6080078
:10095000C4F20200016821F00301029A52681143B7
:100960000160FFF797FE0090FFE743F60800C4F22E
:100970000200006800F00C0002994968B0EB810F9A
:100980000ED0FFE7FFF786FE0099401A41F2893149
:10099000884204D3FFE703208DF80F0062E0E4E70C
:1009A000FFE7019843F60041C4F20201096801F033
:1009B0000701884212D2FFE7019843F60041C4F2D2
:1009C00002010870086800F007000199884204D00D
:1009D000FFE701208DF80F0044E0FFE70298007860
:1009E000400700280CD5FFE743F60800C4F20200D8
:1009F000016821F4E051029AD26811430160FFE7D7
:100A000002980078000700280DD5FFE743F608009C
:100A1000C4F20200016821F46041029A126941EABD
:100A2000C2010160FFE700F04BF843F60801C4F291
:100A300002010968C9B2090942F28052C0F60002F7
:100A4000515CC84040F20001C2F20001086040F26F
:100A50000800C2F200000068FFF74EFE00218DF88A
:100A60000F10FFE79DF80F0004B080BD40F20000BA
:100A7000C2F200000068704780B5FFF7F7FF43F649
:100A80000801C4F202010968C1F3822142F29052C6
:100A9000C0F60002515CC84080BD000080B5FFF781
:100AA000E5FF43F60801C4F20201096889B2490B67
:100AB00042F29052C0F60002515CC84080BD000076
:100AC00080B586B00020059004900390029043F614
:100AD0000800C4F20200006800F00C000146002883
:100AE000019108D0FFE7019804280AD0FFE7019898
:100AF00008280CD04FE042F20040C0F2F40002900F
:100B00004FE041F20020C0F27A00029049E043F643
:100B10000400C4F20200016801F03F010591006881
:100B20004002002813D5FFE743F60400C4F2020098
:100B30000068C0F3881041F20021C0F27A01A0FBE6
:100B40000101059A0023FFF741FB049012E043F6F0
:100B50000400C4F202000068C0F3881042F20041B1
:100B6000C0F2F401A0FB0101059A0023FFF72EFB60
:100B70000490FFE743F60400C4F20200006800F4AA
:100B80004030022101EBD030039004980399B0FB70
:100B9000F1F0029005E042F20040C0F2F400029051
:100BA000FFE7029806B080BD80B586B00490049837
:100BB000002804D1FFE701208DF8170055E30498C1
:100BC0000078C007002800F0A780FFE743F6080080
:100BD000C4F20200006800F00C00042813D0FFE704
:100BE00043F60800C4F20200006800F00C00082878
:100BF0001FD1FFE743F60400C4F202000068400280
:100C0000002816D5FFE743F60000C4F20200006892
:100C100000F400300021B1EB504F09D0FFE70498F9
:100C20004068002804D1FFE701208DF817001CE37D
:100C300071E0FFE704984068B0F5803F09D1FFE715
:100C400043F60000C4F20200016841F48031016003
:100C500020E004984068B0F5A02F0DD1FFE743F6DF
:100C60000000C4F20200016841F4802101600168C3
:100C700041F4803101600CE043F60000C4F2020050
:100C8000016821F480310160016821F48021016054
:100C9000FFE7FFE7FFE70498406800281DD0FFE763
:100CA000FFF7F8FC0390FFE743F60000C4F20200F0
:100CB000006800F400300021B1EB504F0CD1FFE789
:100CC000FFF7E8FC0399401A652804D3FFE70320E7
:100CD0008DF81700C9E2E7E71CE0FFF7DBFC0390A3
:100CE000FFE743F60000C4F20200006800F40030A1
:100CF0000021B1EB504F0CD0FFE7FFF7CBFC03997D
:100D0000401A652804D3FFE703208DF81700ACE2F2
:100D1000E7E7FFE7FFE7FFE7049800788007002890
:100D200040F19780FFE743F60800C4F20200006834
:100D300010F00C0F13D0FFE743F60800C4F20200D6
:100D4000006800F00C0008282CD1FFE743F60400EF
:100D5000C4F2020000684002002823D4FFE743F6F3
:100D60000000C4F20200006800F002000021B1EBB4
:100D7000500F09D0FFE70498C068012804D0FFE7AE
:100D800001208DF8170070E243F60000C4F2020063
:100D9000016821F0F801049A126941EAC201016078
:100DA000FFE755E00498C06800282ED0FFE7002038
:100DB000C4F2472001210160FFF76CFC0390FFE7BC
:100DC00043F60000C4F20200006800F002000021B7
:100DD000B1EB500F0CD1FFE7FFF75CFC0399401A11
:100DE000032804D3FFE703208DF817003DE2E7E76F
:100DF00043F60000C4F20200016821F0F801049AF1
:100E0000126941EAC201016021E00020C4F24720DA
:100E100000210160FFF73EFC0390FFE743F600006E
:100E2000C4F20200006800F002000021B1EB500F94
:100E30000CD0FFE7FFF72EFC0399401A032804D3D8
:100E4000FFE703208DF817000FE2E7E7FFE7FFE772
:100E5000FFE704980078000700284CD5FFE70498C6
:100E60004069002823D0FFE740F68060C4F24720A5
:100E700001210160FFF70EFC0390FFE743F67400C9
:100E8000C4F20200006800F002000021B1EB500F34
:100E90000CD1FFE7FFF7FEFB0399401A032804D3A8
:100EA000FFE703208DF81700DFE1E7E722E040F6D7
:100EB0008060C4F2472000210160FFF7EBFB039044
:100EC000FFE743F67400C4F20200006800F002007D
:100ED0000021B1EB500F0CD0FFE7FFF7DBFB0399CC
:100EE000401A032804D3FFE703208DF81700BCE164
:100EF000E7E7FFE7FFE7049800784007002840F1A4
:100F0000CF80FFE700208DF8070043F64000C4F2D1
:100F100002000068C000002815D4FFE7FFE70020AA
:100F2000009043F64000C4F20200016841F0805195
:100F30000160006800F0805000900098FFE70120F9
:100F40008DF80700FFE747F20000C4F200000068D8
:100F5000C005002822D4FFE747F20000C4F20000D9
:100F6000016841F480710160FFF794FB0390FFE793
:100F700047F20000C4F200000068C00500280CD44D
:100F8000FFE7FFF787FB0399401A032804D3FFE725
:100F900003208DF8170068E1EAE7FFE7FFE7049810
:100FA0008068012809D1FFE743F67000C4F202000F
:100FB000016841F0010101601FE004988068052884
:100FC0000DD1FFE743F67000C4F20200016841F062
:100FD00004010160016841F0010101600CE043F689
:100FE0007000C4F20200016821F001010160016893
:100FF00021F004010160FFE7FFE7FFE70498806844
:1010000000281FD0FFE7FFF745FB0390FFE743F6FB
:101010007000C4F20200006800F002000021B1EB91
:10102000500F0ED1FFE7FFF735FB0399401A41F24D
:101030008931884204D3FFE703208DF8170014E1BB
:10104000E5E71EE0FFF726FB0390FFE743F670009D
:10105000C4F20200006800F002000021B1EB500F62
:101060000ED0FFE7FFF716FB0399401A41F28931D2
:10107000884204D3FFE703208DF81700F5E0E5E789
:10108000FFE79DF80700012809D1FFE743F640007C
:10109000C4F20200016821F080510160FFE7FFE720
:1010A00004988069002800F0DC80FFE743F6080020
:1010B000C4F20200006800F00C00082800F08580EF
:1010C000FFE70498806902285CD1FFE76020C4F242
:1010D000472000210160FFF7DDFA0390FFE743F6A8
:1010E0000000C4F20200006800F000700021B1EBC3
:1010F000506F0CD0FFE7FFF7CDFA0399401A032891
:1011000004D3FFE703208DF81700AEE0E7E704986B
:10111000C169026A436AD0F828C0114341EA8311C9
:101120004FEACC324FF6FF739A43A2F58032114357
:10113000C06A41EA006043F60401C4F2020108609B
:101140006020C4F2472001210160FFF7A3FA039059
:10115000FFE743F60000C4F20200006800F00070F0
:101160000021B1EB506F0CD1FFE7FFF793FA039921
:10117000401A032804D3FFE703208DF8170074E01A
:10118000E7E721E06020C4F2472000210160FFF77B
:1011900081FA0390FFE743F60000C4F20200006802
:1011A00000F000700021B1EB506F0CD0FFE7FFF7AB
:1011B00071FA0399401A032804D3FFE703208DF83E
:1011C000170052E0E7E7FFE74AE00498806901284A
:1011D00004D1FFE701208DF8170046E043F6040034
:1011E000C4F202000068029004988069012831D09E
:1011F000FFE7029800F480000499C969884229D168
:10120000FFE7029800F03F000499096A884221D163
:10121000FFE7029847F6C07108400499496AB0EBAD
:10122000811F17D1FFE7029800F440300499896AC2
:10123000C9034FF6FF729143A1F58031884209D16D
:10124000FFE7029800F070600499C96AB0EB016F83
:1012500004D0FFE701208DF8170006E0FFE7FFE765
:10126000FFE700208DF81700FFE79DF8170006B094
:1012700080BD000080B582B00190019800F04EFD65
:1012800002B080BD85B003900291FFE7039890F80B
:101290003C00012804D1FFE702208DF813006CE028
:1012A0000398012180F83C10FFE7FFE70398022133
:1012B00080F83D100398006840680190039800682A
:1012C00080680090019820F07000019002980068FA
:1012D00001990843019001980399096848600398AF
:1012E00000680021C4F2010188422AD0FFE7039878
:1012F0000068B0F1804F24D0FFE70398006840F207
:101300000041C4F2000188421BD0FFE70398006847
:1013100040F60001C4F20001884212D0FFE70398B2
:10132000006840F60041C4F20001884209D0FFE79E
:101330000398006844F20001C4F2010188420ED112
:10134000FFE7009820F08000009002984068009924
:10135000084300900098039909688860FFE70398A4
:10136000012180F83D10FFE70398002180F83C1030
:10137000FFE700208DF81300FFE79DF8130005B08C
:101380007047000080B58CB00B9000200A90099047
:101390000890079006900B98006840F20041C4F254
:1013A0000001884245D1FFE7FFE70020059043F6A2
:1013B0003000C4F20200016841F0010101600068E0
:1013C00000F0010005900598FFE7FFE7002004907A
:1013D00043F63000C4F20200016841F002010160EE
:1013E000006800F0020004900498FFE7C020069017
:1013F000022007900021089109910A900022C4F26E
:10140000020206AB02901046019119460093FEF7C6
:1014100059FF0320069002980790019908910991BD
:101420000A9040F20040C4F202000099FEF74AFF21
:101430002BE00B98006840F60001C4F200018842DE
:1014400022D1FFE7FFE70020039043F63000C4F20B
:101450000200016841F002010160006800F0020032
:1014600003900398FFE74FF47070069002200790F6
:101470000021089109910A9040F20040C4F2020054
:1014800006A9FEF71FFFFFE7FFE70CB080BD0000D5
:1014900080B586B004900391029200208DF8070079
:1014A000FFE7049890F83C00012804D1FFE70220F0
:1014B0008DF8170089E00498012180F83C10FFE7BF
:1014C000FFE702980C28009000F270800099DFE896
:1014D00001F0076D6D6D206D6D6D3A6D6D6D530092
:1014E00004980068039900F04BFD04980068816936
:1014F00041F00801816104980068816921F00401CC
:10150000816103980069049909688A6910438861B8
:1015100050E004980068039900F098FD0498006872
:10152000816941F40061816104980068816921F456
:101530008061816103980069049909688A6942EAB7
:101540000020886136E004980068039900F0E8FD07
:1015500004980068C16941F00801C16104980068FD
:10156000C16921F00401C161039800690499096807
:10157000CA691043C8611DE004980068039900F02F
:1015800039FE04980068C16941F40061C1610498A2
:101590000068C16921F48061C16103980069049900
:1015A0000968CA6942EA0020C86103E001208DF899
:1015B0000700FFE7FFE70498002180F83C10FFE7F1
:1015C0009DF807008DF81700FFE79DF8170006B09B
:1015D00080BD000080B584B002900298002804D13C
:1015E000FFE701208DF80F0043E0029890F83D00DE
:1015F000002808D1FFE70298002180F83C100298EB
:1016000000F03CF8FFE70298022180F83D100298B4
:1016100050F8041B01900846019900F00FFC029855
:10162000012180F84610FFE70298012180F83E1062
:10163000029880F83F10029880F84010029880F8D5
:101640004110FFE7FFE70298012180F8421002985D
:1016500080F84310029880F84410029880F84510F2
:10166000FFE70298012180F83D1000208DF80F005F
:10167000FFE79DF80F0004B080BD000083B002902A
:101680000298006840F20041C4F20001884212D181
:10169000FFE7FFE70020019043F64000C4F202009C
:1016A000016841F002010160006800F00200019051
:1016B0000198FFE71BE00298006840F60001C4F2C1
:1016C0000001884212D1FFE7FFE70020009043F6B7
:1016D0004000C4F20200016841F0040101600068AA
:1016E00000F0040000900098FFE7FFE7FFE703B079
:1016F0007047000080B582B000900098002804D1A7
:10170000FFE701208DF8070042E00098806900287B
:1017100001D0FFE700E0FFE7009890F841000028C3
:1017200008D1FFE70098002180F84010009800F0F1
:1017300033F8FFE70098242180F8411000980068F2
:10174000C16821F40051C160009800F0E1FD0098EB
:101750000068016921F490410161009800684169C5
:1017600021F02A01416100980068C16841F40051EC
:10177000C1600098002141640098202280F8412037
:10178000009880F84220009841638DF80710FFE729
:101790009DF8070002B080BD80B58CB00B90002092
:1017A0000A9009900890079006900B98006841F203
:1017B0000001C4F20101884234D1FFE7FFE70020B5
:1017C000059043F64400C4F20200016841F01001A4
:1017D0000160006800F0100005900598FFE7FFE742
:1017E0000020049043F63000C4F20200016841F08A
:1017F00001010160006800F0010004900498FFE717
:101800004FF4C0600690022007900020089003204B
:10181000099007200A900020C4F2020006A9FEF7F2
:1018200051FD7AE00B98006844F20041C4F20001D7
:10183000884233D1FFE7FFE70020039043F64000E2
:10184000C4F20200016841F400310160006800F454
:10185000003003900398FFE7FFE70020029043F673
:101860003000C4F20200016841F00101016000682B
:1018700000F0010002900298FFE70C200690022081
:101880000790002008900320099007200A9000206C
:10189000C4F2020006A9FEF715FD3DE00B980068B2
:1018A00041F20041C4F20101884234D1FFE7FFE771
:1018B0000020019043F64400C4F20200016841F0A8
:1018C00020010160006800F0200001900198FFE70E
:1018D000FFE70020009043F63000C4F202000168E8
:1018E00041F004010160006800F0040000900098DD
:1018F000FFE7C020069002200790002008900320F8
:10190000099008200A9040F60000C4F2020006A9DF
:10191000FEF7D8FCFFE7FFE7FFE70CB080BD000053
:10192000FFE7FEE780B58CB000200B900A9009908D
:1019300008900790FFE70020069043F63000C4F2BD
:101940000200016841F080010160006800F0800041
:1019500006900698FFE7FFE70020059043F6300069
:10196000C4F20200016841F001010160006800F06A
:10197000010005900598FFE7FFE70020049043F67B
:101980003000C4F20200016841F002010160006809
:1019900000F0020004900498FFE7FFE700200390A6
:1019A00043F63000C4F20200016841F00401016016
:1019B000006800F0040003900398FFE740F6000081
:1019C000C4F202004FF44071002202900191009293
:1019D000FEF746FE019807900121089100990991B0
:1019E0000A9107A90298FEF76DFC0CB080BD0000BB
:1019F00080B58AB000200990089007900690059065
:101A0000049003900290019040F21001C2F2000194
:101A100040F20042C4F200020A60486088604FF65B
:101A2000FF72CA60086188610846FFF7D3FD00288D
:101A300003D0FFE7FEF742FCFFE700200890099083
:101A400040F21000C2F2000008A9FFF71BFC0028BA
:101A500003D0FFE7FEF732FCFFE760200190002093
:101A600002900390059040F21001C2F2000101AA19
:101A7000009008461146009AFFF70AFD002803D09F
:101A8000FFE7FEF71BFCFFE740F21000C2F2000088
:101A900001A90422FFF7FCFC002803D0FFE7FEF7B2
:101AA0000DFCFFE740F21000C2F2000001A908227D
:101AB000FFF7EEFC002803D0FFE7FEF7FFFBFFE790
:101AC00040F21000C2F2000001A90C22FFF7E0FC76
:101AD000002803D0FFE7FEF7F1FBFFE740F210001C
:101AE000C2F20000FFF74EFC0AB080BD80B58AB09C
:101AF00000200990089007900690059004900390AC
:101B00000290019040F25801C2F2000140F600023A
:101B1000C4F200020A60486088604FF6FF72CA6033
:101B2000086188610846FFF755FD002803D0FFE7EC
:101B3000FEF7C4FBFFE700200890099040F2580030
:101B4000C2F2000008A9FFF79DFB002803D0FFE7C1
:101B5000FEF7B4FBFFE760200190002002900390A5
:101B6000059040F25801C2F2000101AA0090084617
:101B70001146009AFFF78CFC002803D0FFE7FEF720
:101B80009DFBFFE740F25800C2F2000001A90422C9
:101B9000FFF77EFC002803D0FFE7FEF78FFBFFE78F
:101BA00040F25800C2F2000001A90822FFF770FCC1
:101BB000002803D0FFE7FEF781FBFFE740F2580063
:101BC000C2F2000001A90C22FFF762FC002803D03A
:101BD000FFE7FEF773FBFFE740F25800C2F2000098
:101BE000FFF7D0FB0AB080BD80B540F2A000C2F282
:101BF000000041F20001C4F2010101604FF4E13143
:101C0000416000218160C16001610C2242618161FB
:101C1000C161FFF76FFD002803D0FFE7FEF74EFB21
:101C2000FFE780BD80B540F2E800C2F2000044F258
:101C30000041C4F2000101604FF4E1314160002134
:101C40008160C16001610C2242618161C161FFF765
:101C500051FD002803D0FFE7FEF730FBFFE780BD12
:101C600080B540F23010C2F2000041F20041C4F2EF
:101C7000010101604FF4E131416000218160C160E8
:101C800001610C2242618161C161FFF733FD0028CF
:101C900003D0FFE7FEF712FBFFE780BDFFE7FEE79B
:101CA000FFE7FEE788B0079006910592079800F0DD
:101CB000070004900498C0F10700052803D3FFE74C
:101CC0000420019004E00498C0F107000190FFE7B0
:101CD0000198039004980430062803D8FFE70020F9
:101CE000009003E0049803380090FFE7009802900A
:101CF00006980399012202FA01F10139084002997C
:101D00008840059B02FA01F101391940084308B0E7
:101D100070470000704700007047000080B582B037
:101D2000009000980138B0F1807F03D3FFE70120D5
:101D3000019019E0009801384EF21401CEF2000132
:101D400008604FF0FF300F2100F098FB4EF21800B2
:101D5000CEF20000002101604EF21000CEF2000031
:101D6000072202600191FFE7019802B080BD0000E8
:101D700080B5FEF795FC80BD80B594B008A83021F1
:101D8000FEF75CFA002007900690059004900390FF
:101D9000FFE70020029043F64000C4F20200016811
:101DA00041F080510160006800F08050029002987C
:101DB000FFE7FFE70020019047F20000C4F20000B7
:101DC0000168022262F38F310160006800F4404034
:101DD00001900198FFE70220089001200B90082055
:101DE0000C9000200E9008A8FEF7DEFE002803D01D
:101DF000FFE7FEF763FAFFE70F200390002004904F
:101E000005904FF480510691079003A90090084671
:101E10000099FEF7F9FC002803D0FFE7FEF74EFA21
:101E2000FFE714B080BD00004EF68850CEF20000EF
:101E3000016841F4700101607047000083B00290B6
:101E4000019102980068009002980021C4F20101FB
:101E500088421DD0FFE70298B0F1804F18D0FFE70D
:101E6000029840F20041C4F20001884210D0FFE71E
:101E7000029840F60001C4F20001884208D0FFE752
:101E8000029840F60041C4F2000188420AD1FFE7FF
:101E9000009820F070000090019840680099084375
:101EA0000090FFE702980021C4F20101884235D07A
:101EB000FFE70298B0F1804F30D0FFE7029840F280
:101EC0000041C4F20001884228D0FFE7029840F6A2
:101ED0000001C4F20001884220D0FFE7029840F6DA
:101EE0000041C4F20001884218D0FFE7029844F292
:101EF0000001C4F20101884210D0FFE7029844F2C9
:101F00000041C4F20101884208D0FFE7029844F67C
:101F10000001C4F2010188420AD1FFE7009820F4D1
:101F2000407000900198C068009908430090FFE756
:101F3000009820F0800001994969084300900198B9
:101F400080680299C86201980068029988620298C4
:101F50000021C4F20101884205D1FFE70198006920
:101F600002990863FFE70298016841F004010160EB
:101F700002980121416100980299086003B07047FE
:101F800085B0049003910498006A01900498016A56
:101F900021F0010101620498406800900498806972
:101FA0000290029820F070000290029820F0030046
:101FB000029003980068029908430290019820F06B
:101FC00002000190039880680199084301900498E9
:101FD0000021C4F2010188420ED1FFE7019820F0F0
:101FE000080001900398C068019908430190019886
:101FF00020F004000190FFE704980021C4F20101E1
:10200000884213D1FFE7009820F480700090009878
:1020100020F40070009003984069009908430090F4
:1020200003988069009908430090FFE7009804999D
:10203000486002980499886103984068049948634D
:1020400001980499086205B07047000085B00490BB
:1020500003910498006A01900498016A21F010012C
:102060000162049840680090049880690290029888
:1020700020F4E0400290029820F44070029003980F
:102080000068029941EA00200290019820F02000A7
:10209000019003988068019941EA0010019004982A
:1020A0000021C4F2010188420FD1FFE7019820F01E
:1020B000800001900398C068019941EA00100190E6
:1020C000019820F040000190FFE704980021C4F23D
:1020D0000101884215D1FFE7009820F4806000904C
:1020E000009820F40060009003984069009941EA4C
:1020F0008000009003988069009941EA8000009078
:10210000FFE7009804994860029804998861039851
:1021100040680499886301980499086205B0704783
:1021200085B0049003910498006A01900498016AB4
:1021300021F4807101620498406800900498C0699D
:102140000290029820F070000290029820F00300A4
:10215000029003980068029908430290019820F4C5
:102160000070019003988068019941EA0020019075
:1021700004980021C4F2010188420FD1FFE70198C1
:1021800020F4006001900398C068019941EA0020A2
:102190000190019820F480600190FFE704980021ED
:1021A000C4F20101884215D1FFE7009820F4805065
:1021B0000090009820F40050009003984069009926
:1021C00041EA0010009003988069009941EA0010EC
:1021D0000090FFE700980499486002980499C8614C
:1021E000039840680499C86301980499086205B08F
:1021F0007047000085B0049003910498006A019034
:102200000498016A21F480510162049840680090AA
:102210000498C0690290029820F4E040029002986D
:1022200020F44070029003980068029941EA00206F
:102230000290019820F40050019003988068019961
:1022400041EA0030019004980021C4F20101884263
:102250000BD1FFE7009820F480400090039840697C
:10226000009941EA80100090FFE7009804994860C7
:1022700002980499C8610398406804990864019819
:102280000499086205B0704780B584B01946944639
:10229000DDF818E002900193009240F20400C2F2CF
:1022A0000000007800280ED0FFE700980199029AFC
:1022B0005160106040F20400C2F200000021017081
:1022C0008DF80F101FE00298002101720098019A0A
:1022D000029BD3F800C05B68B0EB0C0062EB03021A
:1022E000069B181A914109D2FFE700980199029ABA
:1022F00051601060029801210172FFE70298007A94
:102300008DF80F00FFE79DF80F0004B080BD0000BE
:1023100080B588B0079007980068006920F44050A5
:1023200007990A68C96808431061079881680269BB
:102330004369C06911431943084306900798006830
:10234000C06849F20C6188430699084307990968F7
:10235000C86007980068406920F4407007990A68CF
:102360008969084350610798006841F20001C4F28E
:102370000101884209D0FFE70798006841F2004157
:10238000C4F20101884204D1FFE7FEF787FB059004
:1023900003E0FEF771FB0590FFE70798C069B0F511
:1023A000004F2FD1FFE705981921A0FB0101079AE3
:1023B000136852684FEA420CD20F04926246DDF86D
:1023C00010C003936346FDF701FF48F21F51C5F2A9
:1023D000EB11A0FB01235B094FEA031C4FF0640ED5
:1023E00003FB1E00322303EBC000A0FB0101F82316
:1023F00003EA51130CEB4303C1F342111944039B4D
:1024000099602EE005981921A0FB0101079A136835
:1024100052684FEA820C920F02926246DDF808C0C1
:1024200001936346FDF7D2FE48F21F51C5F2EB114E
:10243000A0FB01235B094FF0640C03FB1C004FF071
:10244000320C0CEB0010A0FB01014FF0F00C0CEA79
:10245000511C0CEB0313C1F343111944019B996008
:10246000FFE708B080BD0000FFE7FEE74EF60C5026
:10247000CEF200000068C0F30220704782B002462E
:102480008DF8070000919DF9070000280AD4FFE7A6
:10249000009800019DF907104EF20042CEF20002B2
:1024A00088540BE0009800019DF8071001F00F011F
:1024B0004EF61452CEF200028854FFE702B0704785
:1024C00083B00290029800F0070000904EF60C5086
:1024D000CEF200000168019101994FF6FF02114010
:1024E00001910199009A41EA02210022C0F2FA52B8
:1024F000114301910199016003B0704780B584B028
:1025000000200390FEF7DAF80290FFF735FCFFF7A2
:1025100009FAFFF76DFAFFF7E9FAFFF765FBFFF736
:1025200081FBFFF79DFBFFE7FEF7B4F869464FF428
:10253000FA720A6040F27811C2F2000100230190A1
:102540000846019AFFF7A0FE002809D0FFE740F6F1
:102550000000C4F202004FF48071FEF76BF8FFE751
:10256000E2E702E008C8121F08C1002AFAD170474A
:102570007047002001E001C1121F002AFBD1704703
:102580000000000000000000010203040607080923
:102590000000000001020304B8250008000000202C
:1025A0001000000062250008C82500081000002067
:1025B00080090000722500080024F40001010000D9
:0825C000100000000000000003
:040000050800019559
:00000001FF
